{"contracts/ManaVendingMachine.sol":{"ManaVendingMachine":{"abi":[{"inputs":[],"stateMutability":"nonpayable","type":"constructor"},{"anonymous":false,"inputs":[{"indexed":true,"internalType":"address","name":"previousOwner","type":"address"},{"indexed":true,"internalType":"address","name":"newOwner","type":"address"}],"name":"OwnershipTransferred","type":"event"},{"anonymous":false,"inputs":[{"indexed":false,"internalType":"address","name":"buyer","type":"address"},{"indexed":false,"internalType":"uint256[]","name":"quantities","type":"uint256[]"},{"indexed":false,"internalType":"uint256","name":"totalEth","type":"uint256"},{"indexed":false,"internalType":"uint256","name":"totalMana","type":"uint256"}],"name":"PurchasePackages","type":"event"},{"inputs":[],"name":"contractBalance","outputs":[{"internalType":"uint256","name":"","type":"uint256"}],"stateMutability":"view","type":"function"},{"inputs":[{"internalType":"address","name":"_address","type":"address"}],"name":"getManaBalance","outputs":[{"internalType":"uint256","name":"","type":"uint256"}],"stateMutability":"view","type":"function"},{"inputs":[{"internalType":"uint8","name":"pkgId","type":"uint8"}],"name":"getPackageFromId","outputs":[{"components":[{"internalType":"uint256","name":"manaQty","type":"uint256"},{"internalType":"uint256","name":"price","type":"uint256"}],"internalType":"struct ManaVendingMachine.Package","name":"","type":"tuple"}],"stateMutability":"view","type":"function"},{"inputs":[],"name":"getPackages","outputs":[{"components":[{"internalType":"uint256","name":"manaQty","type":"uint256"},{"internalType":"uint256","name":"price","type":"uint256"}],"internalType":"struct ManaVendingMachine.Package[]","name":"","type":"tuple[]"}],"stateMutability":"view","type":"function"},{"inputs":[],"name":"getPkgQty","outputs":[{"internalType":"uint8","name":"","type":"uint8"}],"stateMutability":"view","type":"function"},{"inputs":[{"internalType":"address","name":"","type":"address"}],"name":"manaBalances","outputs":[{"internalType":"uint256","name":"","type":"uint256"}],"stateMutability":"view","type":"function"},{"inputs":[],"name":"owner","outputs":[{"internalType":"address","name":"","type":"address"}],"stateMutability":"view","type":"function"},{"inputs":[{"internalType":"uint256","name":"","type":"uint256"}],"name":"packages","outputs":[{"internalType":"uint256","name":"manaQty","type":"uint256"},{"internalType":"uint256","name":"price","type":"uint256"}],"stateMutability":"view","type":"function"},{"inputs":[],"name":"pkgQty","outputs":[{"internalType":"uint8","name":"","type":"uint8"}],"stateMutability":"view","type":"function"},{"inputs":[{"internalType":"uint256[]","name":"_qty","type":"uint256[]"}],"name":"purchasePackages","outputs":[],"stateMutability":"payable","type":"function"},{"inputs":[],"name":"renounceOwnership","outputs":[],"stateMutability":"nonpayable","type":"function"},{"inputs":[{"internalType":"uint256[]","name":"_manaQty","type":"uint256[]"},{"internalType":"uint256[]","name":"_prices","type":"uint256[]"}],"name":"setPackages","outputs":[],"stateMutability":"nonpayable","type":"function"},{"inputs":[{"internalType":"address","name":"_vaultAdress","type":"address"}],"name":"setVaultAddress","outputs":[],"stateMutability":"nonpayable","type":"function"},{"inputs":[{"internalType":"address","name":"newOwner","type":"address"}],"name":"transferOwnership","outputs":[],"stateMutability":"nonpayable","type":"function"},{"inputs":[],"name":"vaultAddress","outputs":[{"internalType":"address payable","name":"","type":"address"}],"stateMutability":"view","type":"function"},{"inputs":[{"internalType":"uint256","name":"_amount","type":"uint256"}],"name":"withdraw","outputs":[],"stateMutability":"nonpayable","type":"function"},{"inputs":[],"name":"withdrawAll","outputs":[],"stateMutability":"nonpayable","type":"function"}],"evm":{"bytecode":{"linkReferences":{},"object":"60806040527fffffffffffffffffffffffffffffffffffffffffffffffffffffffffffffffff6004556003600560006101000a81548160ff021916908360ff1602179055503480156200005157600080fd5b506200007262000066620001f260201b60201c565b620001fa60201b60201c565b6200008e677bfb6b99ffa4800660c01b620002be60201b60201c565b620000aa675da08289f56f115d60c01b620002be60201b60201c565b33600160006101000a81548173ffffffffffffffffffffffffffffffffffffffff021916908373ffffffffffffffffffffffffffffffffffffffff160217905550620001076759bed1a61ab1d92060c01b620002be60201b60201c565b6200012367d23f69eb4e7c2c9260c01b620002be60201b60201c565b60005b600560009054906101000a900460ff1660ff168160ff161015620001eb5762000160670d3da5494f6c7e7b60c01b620002be60201b60201c565b6200017c675492a7fd5e4fdcaa60c01b620002be60201b60201c565b60066040518060400160405280600081526020016004548152509080600181540180825580915050600190039060005260206000209060020201600090919091909150600082015181600001556020820151816001015550508080620001e290620002fd565b91505062000126565b506200032b565b600033905090565b60008060009054906101000a900473ffffffffffffffffffffffffffffffffffffffff169050816000806101000a81548173ffffffffffffffffffffffffffffffffffffffff021916908373ffffffffffffffffffffffffffffffffffffffff1602179055508173ffffffffffffffffffffffffffffffffffffffff168173ffffffffffffffffffffffffffffffffffffffff167f8be0079c531659141344cd1fd0a4f28419497f9722a3daafe3b4186f6b6457e060405160405180910390a35050565b50565b7f4e487b7100000000000000000000000000000000000000000000000000000000600052601160045260246000fd5b600060ff82169050919050565b60006200030a82620002f0565b915060ff820362000320576200031f620002c1565b5b600182019050919050565b61210f806200033b6000396000f3fe6080604052600436106100fe5760003560e01c8063715018a61161009557806385535cc51161006457806385535cc5146103025780638b7afe2e1461032b5780638da5cb5b14610356578063c216212a14610381578063f2fde38b146103bf576100fe565b8063715018a6146102805780637946035114610297578063800a9cdd146102c2578063853828b6146102eb576100fe565b806349e51fad116100d157806349e51fad146101d157806358f1ed01146101ed5780635c05a89f1461022a5780636f7e05ea14610255576100fe565b80630e31b49f146101035780631f999818146101405780632e1a7d4d1461017d578063430bf08a146101a6575b600080fd5b34801561010f57600080fd5b5061012a6004803603810190610125919061141c565b6103e8565b6040516101379190611462565b60405180910390f35b34801561014c57600080fd5b50610167600480360381019061016291906114b6565b610400565b6040516101749190611521565b60405180910390f35b34801561018957600080fd5b506101a4600480360381019061019f9190611568565b61048f565b005b3480156101b257600080fd5b506101bb6106df565b6040516101c891906115b6565b60405180910390f35b6101eb60048036038101906101e6919061172a565b610705565b005b3480156101f957600080fd5b50610214600480360381019061020f919061141c565b610ac7565b6040516102219190611462565b60405180910390f35b34801561023657600080fd5b5061023f610b4c565b60405161024c9190611851565b60405180910390f35b34801561026157600080fd5b5061026a610bfb565b6040516102779190611882565b60405180910390f35b34801561028c57600080fd5b50610295610c0e565b005b3480156102a357600080fd5b506102ac610c22565b6040516102b99190611882565b60405180910390f35b3480156102ce57600080fd5b506102e960048036038101906102e491906118f8565b610c75565b005b3480156102f757600080fd5b50610300610ee8565b005b34801561030e57600080fd5b506103296004803603810190610324919061141c565b6110c1565b005b34801561033757600080fd5b5061034061115d565b60405161034d9190611462565b60405180910390f35b34801561036257600080fd5b5061036b611163565b6040516103789190611988565b60405180910390f35b34801561038d57600080fd5b506103a860048036038101906103a39190611568565b61118c565b6040516103b69291906119a3565b60405180910390f35b3480156103cb57600080fd5b506103e660048036038101906103e1919061141c565b6111c0565b005b60036020528060005260406000206000915090505481565b610408611390565b61041c676a51ddc742cc84a160c01b611243565b61043067f5554c9c1038058a60c01b611243565b6104446778ff5481cadaf5c860c01b611243565b60068260ff168154811061045b5761045a6119cc565b5b9060005260206000209060020201604051806040016040529081600082015481526020016001820154815250509050919050565b6104a367b208e66ea44d01c960c01b611243565b6104ab611246565b6104bf67e7f95c9669979f4560c01b611243565b6104d367cd707742cc7c785460c01b611243565b6104e76768f70861a733073760c01b611243565b6104fb67882674d56964f6e160c01b611243565b61050f671552a3358efeb28a60c01b611243565b600254811115610554576040517f08c379a000000000000000000000000000000000000000000000000000000000815260040161054b90611a58565b60405180910390fd5b610568673cbe34ca8fdf832d60c01b611243565b61057c67683520000d7885c860c01b611243565b806002600082825461058e9190611aa7565b925050819055506105a96723f8410f6d3a574760c01b611243565b6105bd67c53e754ca15346ed60c01b611243565b6000600160009054906101000a900473ffffffffffffffffffffffffffffffffffffffff1673ffffffffffffffffffffffffffffffffffffffff168260405161060590611b0c565b60006040518083038185875af1925050503d8060008114610642576040519150601f19603f3d011682016040523d82523d6000602084013e610647565b606091505b5050905061065f675311d05cb7e2aeb360c01b611243565b610673672365e4c686d10ca560c01b611243565b610687674be94397f8c615a560c01b611243565b806106c7576040517f08c379a00000000000000000000000000000000000000000000000000000000081526004016106be90611b6d565b60405180910390fd5b6106db671c78cf6abaf6875b60c01b611243565b5050565b600160009054906101000a900473ffffffffffffffffffffffffffffffffffffffff1681565b6107196775fc5917f01fd47d60c01b611243565b61072d676b7412f0187b8c6a60c01b611243565b610741671548057c0668adb960c01b611243565b610755675998abb5c8a9830d60c01b611243565b60068054905081511461079d576040517f08c379a000000000000000000000000000000000000000000000000000000000815260040161079490611c25565b60405180910390fd5b6107b1672a81aac93d281a7760c01b611243565b6107c5677898f7df70be014e60c01b611243565b6107d967304eda2a5827beef60c01b611243565b60006107ef678370dabb1f85b07860c01b611243565b6108036784b70ac18298605660c01b611243565b600061081967f608c38c05dc604060c01b611243565b61082d6757866cc209dc0c0760c01b611243565b60005b83518160ff16101561093357610850675aae15fa8061e83260c01b611243565b838160ff1681518110610866576108656119cc565b5b602002602001015160068260ff1681548110610885576108846119cc565b5b9060005260206000209060020201600101546108a19190611c45565b836108ac9190611c87565b92506108c2677fad7d5fd9a1295860c01b611243565b838160ff16815181106108d8576108d76119cc565b5b602002602001015160068260ff16815481106108f7576108f66119cc565b5b9060005260206000209060020201600001546109139190611c45565b8261091e9190611c87565b9150808061092b90611cbb565b915050610830565b5061094867e788e338f8a2ea6e60c01b611243565b61095c670d8b9cf91069475460c01b611243565b61097067b94af9b1f30c6c9e60c01b611243565b8134146109b2576040517f08c379a00000000000000000000000000000000000000000000000000000000081526004016109a990611d30565b60405180910390fd5b6109c66753d01dbfaebab48c60c01b611243565b6109da670afcd9b591327a8d60c01b611243565b80600360003373ffffffffffffffffffffffffffffffffffffffff1673ffffffffffffffffffffffffffffffffffffffff1681526020019081526020016000206000828254610a299190611c87565b92505081905550610a44677814e8169cf9610860c01b611243565b8160026000828254610a569190611c87565b92505081905550610a7167951c0b491adb004c60c01b611243565b610a8567286134d8d7a9c60e60c01b611243565b7f64131d7433d64d592fad1870936554cdb1b7276a745cb4795b36678fc5237f8833848484604051610aba9493929190611dff565b60405180910390a1505050565b6000610add6722c7eadd2445823f60c01b611243565b610af16772709c7b6e9357cd60c01b611243565b610b0567b9906dbf4c05b49b60c01b611243565b600360008373ffffffffffffffffffffffffffffffffffffffff1673ffffffffffffffffffffffffffffffffffffffff168152602001908152602001600020549050919050565b6060610b6267fa86d4366eda8ab760c01b611243565b610b7667c5c91996c79bd1b260c01b611243565b610b8a675a77752aec0814c760c01b611243565b6006805480602002602001604051908101604052809291908181526020016000905b82821015610bf257838290600052602060002090600202016040518060400160405290816000820154815260200160018201548152505081526020019060010190610bac565b50505050905090565b600560009054906101000a900460ff1681565b610c16611246565b610c2060006112c4565b565b6000610c38675d74eaf831ba9cec60c01b611243565b610c4c67ecf275499b67c62a60c01b611243565b610c60674dc1cde47af9da1460c01b611243565b600560009054906101000a900460ff16905090565b610c89675a5fd3e34549812b60c01b611243565b610c91611246565b610ca567c63e22141e134fd360c01b611243565b610cb967969cf58e607e89c760c01b611243565b610ccd67fe59ffd8bd68f83960c01b611243565b610ce1671cd32aa676e400b860c01b611243565b610cf567c77efdfa347e150c60c01b611243565b818190508484905014610d3d576040517f08c379a0000000000000000000000000000000000000000000000000000000008152600401610d3490611ebd565b60405180910390fd5b610d51679174c737664e82c560c01b611243565b610d656776f3ee132309f4c360c01b611243565b610d7967b45b991d197da36360c01b611243565b610d8d674393f34e7c45143860c01b611243565b600560009054906101000a900460ff1660ff168484905014610de4576040517f08c379a0000000000000000000000000000000000000000000000000000000008152600401610ddb90611f4f565b60405180910390fd5b610df86771758dad1a4af87d60c01b611243565b610e0c6772ada53baf1cf5b860c01b611243565b610e2067a8c763d59db83b8c60c01b611243565b60005b848490508160ff161015610ee157610e4567c1f3ab49205d3c8060c01b611243565b604051806040016040528086868460ff16818110610e6657610e656119cc565b5b90506020020135815260200184848460ff16818110610e8857610e876119cc565b5b9050602002013581525060068260ff1681548110610ea957610ea86119cc565b5b906000526020600020906002020160008201518160000155602082015181600101559050508080610ed990611cbb565b915050610e23565b5050505050565b610efc6791bf7bea1dc7ca1a60c01b611243565b610f04611246565b610f18675a39ebc1d7f4fd5660c01b611243565b610f2c67a4f4223cf61a49e960c01b611243565b610f4067d7251bbd9acb429460c01b611243565b610f5467bdae393db0a5952160c01b611243565b60006002549050610f6f675387ac8a3daba6f360c01b611243565b6000600281905550610f8b67260d6dcfb0d4faa860c01b611243565b610f9f67c8da8b6018484fdd60c01b611243565b6000600160009054906101000a900473ffffffffffffffffffffffffffffffffffffffff1673ffffffffffffffffffffffffffffffffffffffff1682604051610fe790611b0c565b60006040518083038185875af1925050503d8060008114611024576040519150601f19603f3d011682016040523d82523d6000602084013e611029565b606091505b5050905061104167550104f1b9ef709f60c01b611243565b6110556779bcae42a28c686760c01b611243565b61106967fde44546dda266d960c01b611243565b806110a9576040517f08c379a00000000000000000000000000000000000000000000000000000000081526004016110a090611fbb565b60405180910390fd5b6110bd67b4b7595b9c31657960c01b611243565b5050565b6110d567a28c54573f53a73e60c01b611243565b6110dd611246565b6110f1673c2250c28ae5067960c01b611243565b61110567d055e9ee38f8240560c01b611243565b6111196719b360fdd690c0ff60c01b611243565b80600160006101000a81548173ffffffffffffffffffffffffffffffffffffffff021916908373ffffffffffffffffffffffffffffffffffffffff16021790555050565b60025481565b60008060009054906101000a900473ffffffffffffffffffffffffffffffffffffffff16905090565b6006818154811061119c57600080fd5b90600052602060002090600202016000915090508060000154908060010154905082565b6111c8611246565b600073ffffffffffffffffffffffffffffffffffffffff168173ffffffffffffffffffffffffffffffffffffffff1603611237576040517f08c379a000000000000000000000000000000000000000000000000000000000815260040161122e9061204d565b60405180910390fd5b611240816112c4565b50565b50565b61124e611388565b73ffffffffffffffffffffffffffffffffffffffff1661126c611163565b73ffffffffffffffffffffffffffffffffffffffff16146112c2576040517f08c379a00000000000000000000000000000000000000000000000000000000081526004016112b9906120b9565b60405180910390fd5b565b60008060009054906101000a900473ffffffffffffffffffffffffffffffffffffffff169050816000806101000a81548173ffffffffffffffffffffffffffffffffffffffff021916908373ffffffffffffffffffffffffffffffffffffffff1602179055508173ffffffffffffffffffffffffffffffffffffffff168173ffffffffffffffffffffffffffffffffffffffff167f8be0079c531659141344cd1fd0a4f28419497f9722a3daafe3b4186f6b6457e060405160405180910390a35050565b600033905090565b604051806040016040528060008152602001600081525090565b6000604051905090565b600080fd5b600080fd5b600073ffffffffffffffffffffffffffffffffffffffff82169050919050565b60006113e9826113be565b9050919050565b6113f9816113de565b811461140457600080fd5b50565b600081359050611416816113f0565b92915050565b600060208284031215611432576114316113b4565b5b600061144084828501611407565b91505092915050565b6000819050919050565b61145c81611449565b82525050565b60006020820190506114776000830184611453565b92915050565b600060ff82169050919050565b6114938161147d565b811461149e57600080fd5b50565b6000813590506114b08161148a565b92915050565b6000602082840312156114cc576114cb6113b4565b5b60006114da848285016114a1565b91505092915050565b6114ec81611449565b82525050565b60408201600082015161150860008501826114e3565b50602082015161151b60208501826114e3565b50505050565b600060408201905061153660008301846114f2565b92915050565b61154581611449565b811461155057600080fd5b50565b6000813590506115628161153c565b92915050565b60006020828403121561157e5761157d6113b4565b5b600061158c84828501611553565b91505092915050565b60006115a0826113be565b9050919050565b6115b081611595565b82525050565b60006020820190506115cb60008301846115a7565b92915050565b600080fd5b6000601f19601f8301169050919050565b7f4e487b7100000000000000000000000000000000000000000000000000000000600052604160045260246000fd5b61161f826115d6565b810181811067ffffffffffffffff8211171561163e5761163d6115e7565b5b80604052505050565b60006116516113aa565b905061165d8282611616565b919050565b600067ffffffffffffffff82111561167d5761167c6115e7565b5b602082029050602081019050919050565b600080fd5b60006116a66116a184611662565b611647565b905080838252602082019050602084028301858111156116c9576116c861168e565b5b835b818110156116f257806116de8882611553565b8452602084019350506020810190506116cb565b5050509392505050565b600082601f830112611711576117106115d1565b5b8135611721848260208601611693565b91505092915050565b6000602082840312156117405761173f6113b4565b5b600082013567ffffffffffffffff81111561175e5761175d6113b9565b5b61176a848285016116fc565b91505092915050565b600081519050919050565b600082825260208201905092915050565b6000819050602082019050919050565b6040820160008201516117b560008501826114e3565b5060208201516117c860208501826114e3565b50505050565b60006117da838361179f565b60408301905092915050565b6000602082019050919050565b60006117fe82611773565b611808818561177e565b93506118138361178f565b8060005b8381101561184457815161182b88826117ce565b9750611836836117e6565b925050600181019050611817565b5085935050505092915050565b6000602082019050818103600083015261186b81846117f3565b905092915050565b61187c8161147d565b82525050565b60006020820190506118976000830184611873565b92915050565b600080fd5b60008083601f8401126118b8576118b76115d1565b5b8235905067ffffffffffffffff8111156118d5576118d461189d565b5b6020830191508360208202830111156118f1576118f061168e565b5b9250929050565b60008060008060408587031215611912576119116113b4565b5b600085013567ffffffffffffffff8111156119305761192f6113b9565b5b61193c878288016118a2565b9450945050602085013567ffffffffffffffff81111561195f5761195e6113b9565b5b61196b878288016118a2565b925092505092959194509250565b611982816113de565b82525050565b600060208201905061199d6000830184611979565b92915050565b60006040820190506119b86000830185611453565b6119c56020830184611453565b9392505050565b7f4e487b7100000000000000000000000000000000000000000000000000000000600052603260045260246000fd5b600082825260208201905092915050565b7f496e73756666696369656e7420636f6e74726163742062616c616e6365000000600082015250565b6000611a42601d836119fb565b9150611a4d82611a0c565b602082019050919050565b60006020820190508181036000830152611a7181611a35565b9050919050565b7f4e487b7100000000000000000000000000000000000000000000000000000000600052601160045260246000fd5b6000611ab282611449565b9150611abd83611449565b9250828203905081811115611ad557611ad4611a78565b5b92915050565b600081905092915050565b50565b6000611af6600083611adb565b9150611b0182611ae6565b600082019050919050565b6000611b1782611ae9565b9150819050919050565b7f576974686472617720776173206e6f74207375636365737366756c0000000000600082015250565b6000611b57601b836119fb565b9150611b6282611b21565b602082019050919050565b60006020820190508181036000830152611b8681611b4a565b9050919050565b7f546865206c656e677468206f6620746865206172726179206973206e6f74207460008201527f68652073616d6520617320746865206e756d626572206f66207061636b61676560208201527f7300000000000000000000000000000000000000000000000000000000000000604082015250565b6000611c0f6041836119fb565b9150611c1a82611b8d565b606082019050919050565b60006020820190508181036000830152611c3e81611c02565b9050919050565b6000611c5082611449565b9150611c5b83611449565b9250828202611c6981611449565b91508282048414831517611c8057611c7f611a78565b5b5092915050565b6000611c9282611449565b9150611c9d83611449565b9250828201905080821115611cb557611cb4611a78565b5b92915050565b6000611cc68261147d565b915060ff8203611cd957611cd8611a78565b5b600182019050919050565b7f56616c75652073656e74206973206e6f74206578616374000000000000000000600082015250565b6000611d1a6017836119fb565b9150611d2582611ce4565b602082019050919050565b60006020820190508181036000830152611d4981611d0d565b9050919050565b600081519050919050565b600082825260208201905092915050565b6000819050602082019050919050565b6000611d8883836114e3565b60208301905092915050565b6000602082019050919050565b6000611dac82611d50565b611db68185611d5b565b9350611dc183611d6c565b8060005b83811015611df2578151611dd98882611d7c565b9750611de483611d94565b925050600181019050611dc5565b5085935050505092915050565b6000608082019050611e146000830187611979565b8181036020830152611e268186611da1565b9050611e356040830185611453565b611e426060830184611453565b95945050505050565b7f4d616e61207175616e7469747920616e6420707269636573206172726179732060008201527f6d7573742068617665207468652073616d65206c656e67746800000000000000602082015250565b6000611ea76039836119fb565b9150611eb282611e4b565b604082019050919050565b60006020820190508181036000830152611ed681611e9a565b9050919050565b7f4d616e61207175616e7469747920616e6420707269636573206172726179732060008201527f6d7573742062652073616d65206c656e67746820617320706b67517479000000602082015250565b6000611f39603d836119fb565b9150611f4482611edd565b604082019050919050565b60006020820190508181036000830152611f6881611f2c565b9050919050565b7f576974686472617720616c6c20776173206e6f74207375636365737366756c00600082015250565b6000611fa5601f836119fb565b9150611fb082611f6f565b602082019050919050565b60006020820190508181036000830152611fd481611f98565b9050919050565b7f4f776e61626c653a206e6577206f776e657220697320746865207a65726f206160008201527f6464726573730000000000000000000000000000000000000000000000000000602082015250565b60006120376026836119fb565b915061204282611fdb565b604082019050919050565b600060208201905081810360008301526120668161202a565b9050919050565b7f4f776e61626c653a2063616c6c6572206973206e6f7420746865206f776e6572600082015250565b60006120a36020836119fb565b91506120ae8261206d565b602082019050919050565b600060208201905081810360008301526120d281612096565b905091905056fea26469706673582212202303a69557e75e8189f4e14681965aeefc347477ce4f2f940e57a41acaeaf55d64736f6c63430008120033","opcodes":"PUSH1 0x80 PUSH1 0x40 MSTORE PUSH32 0xFFFFFFFFFFFFFFFFFFFFFFFFFFFFFFFFFFFFFFFFFFFFFFFFFFFFFFFFFFFFFFFF PUSH1 0x4 SSTORE PUSH1 0x3 PUSH1 0x5 PUSH1 0x0 PUSH2 0x100 EXP DUP2 SLOAD DUP2 PUSH1 0xFF MUL NOT AND SWAP1 DUP4 PUSH1 0xFF AND MUL OR SWAP1 SSTORE POP CALLVALUE DUP1 ISZERO PUSH3 0x51 JUMPI PUSH1 0x0 DUP1 REVERT JUMPDEST POP PUSH3 0x72 PUSH3 0x66 PUSH3 0x1F2 PUSH1 0x20 SHL PUSH1 0x20 SHR JUMP JUMPDEST PUSH3 0x1FA PUSH1 0x20 SHL PUSH1 0x20 SHR JUMP JUMPDEST PUSH3 0x8E PUSH8 0x7BFB6B99FFA48006 PUSH1 0xC0 SHL PUSH3 0x2BE PUSH1 0x20 SHL PUSH1 0x20 SHR JUMP JUMPDEST PUSH3 0xAA PUSH8 0x5DA08289F56F115D PUSH1 0xC0 SHL PUSH3 0x2BE PUSH1 0x20 SHL PUSH1 0x20 SHR JUMP JUMPDEST CALLER PUSH1 0x1 PUSH1 0x0 PUSH2 0x100 EXP DUP2 SLOAD DUP2 PUSH20 0xFFFFFFFFFFFFFFFFFFFFFFFFFFFFFFFFFFFFFFFF MUL NOT AND SWAP1 DUP4 PUSH20 0xFFFFFFFFFFFFFFFFFFFFFFFFFFFFFFFFFFFFFFFF AND MUL OR SWAP1 SSTORE POP PUSH3 0x107 PUSH8 0x59BED1A61AB1D920 PUSH1 0xC0 SHL PUSH3 0x2BE PUSH1 0x20 SHL PUSH1 0x20 SHR JUMP JUMPDEST PUSH3 0x123 PUSH8 0xD23F69EB4E7C2C92 PUSH1 0xC0 SHL PUSH3 0x2BE PUSH1 0x20 SHL PUSH1 0x20 SHR JUMP JUMPDEST PUSH1 0x0 JUMPDEST PUSH1 0x5 PUSH1 0x0 SWAP1 SLOAD SWAP1 PUSH2 0x100 EXP SWAP1 DIV PUSH1 0xFF AND PUSH1 0xFF AND DUP2 PUSH1 0xFF AND LT ISZERO PUSH3 0x1EB JUMPI PUSH3 0x160 PUSH8 0xD3DA5494F6C7E7B PUSH1 0xC0 SHL PUSH3 0x2BE PUSH1 0x20 SHL PUSH1 0x20 SHR JUMP JUMPDEST PUSH3 0x17C PUSH8 0x5492A7FD5E4FDCAA PUSH1 0xC0 SHL PUSH3 0x2BE PUSH1 0x20 SHL PUSH1 0x20 SHR JUMP JUMPDEST PUSH1 0x6 PUSH1 0x40 MLOAD DUP1 PUSH1 0x40 ADD PUSH1 0x40 MSTORE DUP1 PUSH1 0x0 DUP2 MSTORE PUSH1 0x20 ADD PUSH1 0x4 SLOAD DUP2 MSTORE POP SWAP1 DUP1 PUSH1 0x1 DUP2 SLOAD ADD DUP1 DUP3 SSTORE DUP1 SWAP2 POP POP PUSH1 0x1 SWAP1 SUB SWAP1 PUSH1 0x0 MSTORE PUSH1 0x20 PUSH1 0x0 KECCAK256 SWAP1 PUSH1 0x2 MUL ADD PUSH1 0x0 SWAP1 SWAP2 SWAP1 SWAP2 SWAP1 SWAP2 POP PUSH1 0x0 DUP3 ADD MLOAD DUP2 PUSH1 0x0 ADD SSTORE PUSH1 0x20 DUP3 ADD MLOAD DUP2 PUSH1 0x1 ADD SSTORE POP POP DUP1 DUP1 PUSH3 0x1E2 SWAP1 PUSH3 0x2FD JUMP JUMPDEST SWAP2 POP POP PUSH3 0x126 JUMP JUMPDEST POP PUSH3 0x32B JUMP JUMPDEST PUSH1 0x0 CALLER SWAP1 POP SWAP1 JUMP JUMPDEST PUSH1 0x0 DUP1 PUSH1 0x0 SWAP1 SLOAD SWAP1 PUSH2 0x100 EXP SWAP1 DIV PUSH20 0xFFFFFFFFFFFFFFFFFFFFFFFFFFFFFFFFFFFFFFFF AND SWAP1 POP DUP2 PUSH1 0x0 DUP1 PUSH2 0x100 EXP DUP2 SLOAD DUP2 PUSH20 0xFFFFFFFFFFFFFFFFFFFFFFFFFFFFFFFFFFFFFFFF MUL NOT AND SWAP1 DUP4 PUSH20 0xFFFFFFFFFFFFFFFFFFFFFFFFFFFFFFFFFFFFFFFF AND MUL OR SWAP1 SSTORE POP DUP2 PUSH20 0xFFFFFFFFFFFFFFFFFFFFFFFFFFFFFFFFFFFFFFFF AND DUP2 PUSH20 0xFFFFFFFFFFFFFFFFFFFFFFFFFFFFFFFFFFFFFFFF AND PUSH32 0x8BE0079C531659141344CD1FD0A4F28419497F9722A3DAAFE3B4186F6B6457E0 PUSH1 0x40 MLOAD PUSH1 0x40 MLOAD DUP1 SWAP2 SUB SWAP1 LOG3 POP POP JUMP JUMPDEST POP JUMP JUMPDEST PUSH32 0x4E487B7100000000000000000000000000000000000000000000000000000000 PUSH1 0x0 MSTORE PUSH1 0x11 PUSH1 0x4 MSTORE PUSH1 0x24 PUSH1 0x0 REVERT JUMPDEST PUSH1 0x0 PUSH1 0xFF DUP3 AND SWAP1 POP SWAP2 SWAP1 POP JUMP JUMPDEST PUSH1 0x0 PUSH3 0x30A DUP3 PUSH3 0x2F0 JUMP JUMPDEST SWAP2 POP PUSH1 0xFF DUP3 SUB PUSH3 0x320 JUMPI PUSH3 0x31F PUSH3 0x2C1 JUMP JUMPDEST JUMPDEST PUSH1 0x1 DUP3 ADD SWAP1 POP SWAP2 SWAP1 POP JUMP JUMPDEST PUSH2 0x210F DUP1 PUSH3 0x33B PUSH1 0x0 CODECOPY PUSH1 0x0 RETURN INVALID PUSH1 0x80 PUSH1 0x40 MSTORE PUSH1 0x4 CALLDATASIZE LT PUSH2 0xFE JUMPI PUSH1 0x0 CALLDATALOAD PUSH1 0xE0 SHR DUP1 PUSH4 0x715018A6 GT PUSH2 0x95 JUMPI DUP1 PUSH4 0x85535CC5 GT PUSH2 0x64 JUMPI DUP1 PUSH4 0x85535CC5 EQ PUSH2 0x302 JUMPI DUP1 PUSH4 0x8B7AFE2E EQ PUSH2 0x32B JUMPI DUP1 PUSH4 0x8DA5CB5B EQ PUSH2 0x356 JUMPI DUP1 PUSH4 0xC216212A EQ PUSH2 0x381 JUMPI DUP1 PUSH4 0xF2FDE38B EQ PUSH2 0x3BF JUMPI PUSH2 0xFE JUMP JUMPDEST DUP1 PUSH4 0x715018A6 EQ PUSH2 0x280 JUMPI DUP1 PUSH4 0x79460351 EQ PUSH2 0x297 JUMPI DUP1 PUSH4 0x800A9CDD EQ PUSH2 0x2C2 JUMPI DUP1 PUSH4 0x853828B6 EQ PUSH2 0x2EB JUMPI PUSH2 0xFE JUMP JUMPDEST DUP1 PUSH4 0x49E51FAD GT PUSH2 0xD1 JUMPI DUP1 PUSH4 0x49E51FAD EQ PUSH2 0x1D1 JUMPI DUP1 PUSH4 0x58F1ED01 EQ PUSH2 0x1ED JUMPI DUP1 PUSH4 0x5C05A89F EQ PUSH2 0x22A JUMPI DUP1 PUSH4 0x6F7E05EA EQ PUSH2 0x255 JUMPI PUSH2 0xFE JUMP JUMPDEST DUP1 PUSH4 0xE31B49F EQ PUSH2 0x103 JUMPI DUP1 PUSH4 0x1F999818 EQ PUSH2 0x140 JUMPI DUP1 PUSH4 0x2E1A7D4D EQ PUSH2 0x17D JUMPI DUP1 PUSH4 0x430BF08A EQ PUSH2 0x1A6 JUMPI JUMPDEST PUSH1 0x0 DUP1 REVERT JUMPDEST CALLVALUE DUP1 ISZERO PUSH2 0x10F JUMPI PUSH1 0x0 DUP1 REVERT JUMPDEST POP PUSH2 0x12A PUSH1 0x4 DUP1 CALLDATASIZE SUB DUP2 ADD SWAP1 PUSH2 0x125 SWAP2 SWAP1 PUSH2 0x141C JUMP JUMPDEST PUSH2 0x3E8 JUMP JUMPDEST PUSH1 0x40 MLOAD PUSH2 0x137 SWAP2 SWAP1 PUSH2 0x1462 JUMP JUMPDEST PUSH1 0x40 MLOAD DUP1 SWAP2 SUB SWAP1 RETURN JUMPDEST CALLVALUE DUP1 ISZERO PUSH2 0x14C JUMPI PUSH1 0x0 DUP1 REVERT JUMPDEST POP PUSH2 0x167 PUSH1 0x4 DUP1 CALLDATASIZE SUB DUP2 ADD SWAP1 PUSH2 0x162 SWAP2 SWAP1 PUSH2 0x14B6 JUMP JUMPDEST PUSH2 0x400 JUMP JUMPDEST PUSH1 0x40 MLOAD PUSH2 0x174 SWAP2 SWAP1 PUSH2 0x1521 JUMP JUMPDEST PUSH1 0x40 MLOAD DUP1 SWAP2 SUB SWAP1 RETURN JUMPDEST CALLVALUE DUP1 ISZERO PUSH2 0x189 JUMPI PUSH1 0x0 DUP1 REVERT JUMPDEST POP PUSH2 0x1A4 PUSH1 0x4 DUP1 CALLDATASIZE SUB DUP2 ADD SWAP1 PUSH2 0x19F SWAP2 SWAP1 PUSH2 0x1568 JUMP JUMPDEST PUSH2 0x48F JUMP JUMPDEST STOP JUMPDEST CALLVALUE DUP1 ISZERO PUSH2 0x1B2 JUMPI PUSH1 0x0 DUP1 REVERT JUMPDEST POP PUSH2 0x1BB PUSH2 0x6DF JUMP JUMPDEST PUSH1 0x40 MLOAD PUSH2 0x1C8 SWAP2 SWAP1 PUSH2 0x15B6 JUMP JUMPDEST PUSH1 0x40 MLOAD DUP1 SWAP2 SUB SWAP1 RETURN JUMPDEST PUSH2 0x1EB PUSH1 0x4 DUP1 CALLDATASIZE SUB DUP2 ADD SWAP1 PUSH2 0x1E6 SWAP2 SWAP1 PUSH2 0x172A JUMP JUMPDEST PUSH2 0x705 JUMP JUMPDEST STOP JUMPDEST CALLVALUE DUP1 ISZERO PUSH2 0x1F9 JUMPI PUSH1 0x0 DUP1 REVERT JUMPDEST POP PUSH2 0x214 PUSH1 0x4 DUP1 CALLDATASIZE SUB DUP2 ADD SWAP1 PUSH2 0x20F SWAP2 SWAP1 PUSH2 0x141C JUMP JUMPDEST PUSH2 0xAC7 JUMP JUMPDEST PUSH1 0x40 MLOAD PUSH2 0x221 SWAP2 SWAP1 PUSH2 0x1462 JUMP JUMPDEST PUSH1 0x40 MLOAD DUP1 SWAP2 SUB SWAP1 RETURN JUMPDEST CALLVALUE DUP1 ISZERO PUSH2 0x236 JUMPI PUSH1 0x0 DUP1 REVERT JUMPDEST POP PUSH2 0x23F PUSH2 0xB4C JUMP JUMPDEST PUSH1 0x40 MLOAD PUSH2 0x24C SWAP2 SWAP1 PUSH2 0x1851 JUMP JUMPDEST PUSH1 0x40 MLOAD DUP1 SWAP2 SUB SWAP1 RETURN JUMPDEST CALLVALUE DUP1 ISZERO PUSH2 0x261 JUMPI PUSH1 0x0 DUP1 REVERT JUMPDEST POP PUSH2 0x26A PUSH2 0xBFB JUMP JUMPDEST PUSH1 0x40 MLOAD PUSH2 0x277 SWAP2 SWAP1 PUSH2 0x1882 JUMP JUMPDEST PUSH1 0x40 MLOAD DUP1 SWAP2 SUB SWAP1 RETURN JUMPDEST CALLVALUE DUP1 ISZERO PUSH2 0x28C JUMPI PUSH1 0x0 DUP1 REVERT JUMPDEST POP PUSH2 0x295 PUSH2 0xC0E JUMP JUMPDEST STOP JUMPDEST CALLVALUE DUP1 ISZERO PUSH2 0x2A3 JUMPI PUSH1 0x0 DUP1 REVERT JUMPDEST POP PUSH2 0x2AC PUSH2 0xC22 JUMP JUMPDEST PUSH1 0x40 MLOAD PUSH2 0x2B9 SWAP2 SWAP1 PUSH2 0x1882 JUMP JUMPDEST PUSH1 0x40 MLOAD DUP1 SWAP2 SUB SWAP1 RETURN JUMPDEST CALLVALUE DUP1 ISZERO PUSH2 0x2CE JUMPI PUSH1 0x0 DUP1 REVERT JUMPDEST POP PUSH2 0x2E9 PUSH1 0x4 DUP1 CALLDATASIZE SUB DUP2 ADD SWAP1 PUSH2 0x2E4 SWAP2 SWAP1 PUSH2 0x18F8 JUMP JUMPDEST PUSH2 0xC75 JUMP JUMPDEST STOP JUMPDEST CALLVALUE DUP1 ISZERO PUSH2 0x2F7 JUMPI PUSH1 0x0 DUP1 REVERT JUMPDEST POP PUSH2 0x300 PUSH2 0xEE8 JUMP JUMPDEST STOP JUMPDEST CALLVALUE DUP1 ISZERO PUSH2 0x30E JUMPI PUSH1 0x0 DUP1 REVERT JUMPDEST POP PUSH2 0x329 PUSH1 0x4 DUP1 CALLDATASIZE SUB DUP2 ADD SWAP1 PUSH2 0x324 SWAP2 SWAP1 PUSH2 0x141C JUMP JUMPDEST PUSH2 0x10C1 JUMP JUMPDEST STOP JUMPDEST CALLVALUE DUP1 ISZERO PUSH2 0x337 JUMPI PUSH1 0x0 DUP1 REVERT JUMPDEST POP PUSH2 0x340 PUSH2 0x115D JUMP JUMPDEST PUSH1 0x40 MLOAD PUSH2 0x34D SWAP2 SWAP1 PUSH2 0x1462 JUMP JUMPDEST PUSH1 0x40 MLOAD DUP1 SWAP2 SUB SWAP1 RETURN JUMPDEST CALLVALUE DUP1 ISZERO PUSH2 0x362 JUMPI PUSH1 0x0 DUP1 REVERT JUMPDEST POP PUSH2 0x36B PUSH2 0x1163 JUMP JUMPDEST PUSH1 0x40 MLOAD PUSH2 0x378 SWAP2 SWAP1 PUSH2 0x1988 JUMP JUMPDEST PUSH1 0x40 MLOAD DUP1 SWAP2 SUB SWAP1 RETURN JUMPDEST CALLVALUE DUP1 ISZERO PUSH2 0x38D JUMPI PUSH1 0x0 DUP1 REVERT JUMPDEST POP PUSH2 0x3A8 PUSH1 0x4 DUP1 CALLDATASIZE SUB DUP2 ADD SWAP1 PUSH2 0x3A3 SWAP2 SWAP1 PUSH2 0x1568 JUMP JUMPDEST PUSH2 0x118C JUMP JUMPDEST PUSH1 0x40 MLOAD PUSH2 0x3B6 SWAP3 SWAP2 SWAP1 PUSH2 0x19A3 JUMP JUMPDEST PUSH1 0x40 MLOAD DUP1 SWAP2 SUB SWAP1 RETURN JUMPDEST CALLVALUE DUP1 ISZERO PUSH2 0x3CB JUMPI PUSH1 0x0 DUP1 REVERT JUMPDEST POP PUSH2 0x3E6 PUSH1 0x4 DUP1 CALLDATASIZE SUB DUP2 ADD SWAP1 PUSH2 0x3E1 SWAP2 SWAP1 PUSH2 0x141C JUMP JUMPDEST PUSH2 0x11C0 JUMP JUMPDEST STOP JUMPDEST PUSH1 0x3 PUSH1 0x20 MSTORE DUP1 PUSH1 0x0 MSTORE PUSH1 0x40 PUSH1 0x0 KECCAK256 PUSH1 0x0 SWAP2 POP SWAP1 POP SLOAD DUP2 JUMP JUMPDEST PUSH2 0x408 PUSH2 0x1390 JUMP JUMPDEST PUSH2 0x41C PUSH8 0x6A51DDC742CC84A1 PUSH1 0xC0 SHL PUSH2 0x1243 JUMP JUMPDEST PUSH2 0x430 PUSH8 0xF5554C9C1038058A PUSH1 0xC0 SHL PUSH2 0x1243 JUMP JUMPDEST PUSH2 0x444 PUSH8 0x78FF5481CADAF5C8 PUSH1 0xC0 SHL PUSH2 0x1243 JUMP JUMPDEST PUSH1 0x6 DUP3 PUSH1 0xFF AND DUP2 SLOAD DUP2 LT PUSH2 0x45B JUMPI PUSH2 0x45A PUSH2 0x19CC JUMP JUMPDEST JUMPDEST SWAP1 PUSH1 0x0 MSTORE PUSH1 0x20 PUSH1 0x0 KECCAK256 SWAP1 PUSH1 0x2 MUL ADD PUSH1 0x40 MLOAD DUP1 PUSH1 0x40 ADD PUSH1 0x40 MSTORE SWAP1 DUP2 PUSH1 0x0 DUP3 ADD SLOAD DUP2 MSTORE PUSH1 0x20 ADD PUSH1 0x1 DUP3 ADD SLOAD DUP2 MSTORE POP POP SWAP1 POP SWAP2 SWAP1 POP JUMP JUMPDEST PUSH2 0x4A3 PUSH8 0xB208E66EA44D01C9 PUSH1 0xC0 SHL PUSH2 0x1243 JUMP JUMPDEST PUSH2 0x4AB PUSH2 0x1246 JUMP JUMPDEST PUSH2 0x4BF PUSH8 0xE7F95C9669979F45 PUSH1 0xC0 SHL PUSH2 0x1243 JUMP JUMPDEST PUSH2 0x4D3 PUSH8 0xCD707742CC7C7854 PUSH1 0xC0 SHL PUSH2 0x1243 JUMP JUMPDEST PUSH2 0x4E7 PUSH8 0x68F70861A7330737 PUSH1 0xC0 SHL PUSH2 0x1243 JUMP JUMPDEST PUSH2 0x4FB PUSH8 0x882674D56964F6E1 PUSH1 0xC0 SHL PUSH2 0x1243 JUMP JUMPDEST PUSH2 0x50F PUSH8 0x1552A3358EFEB28A PUSH1 0xC0 SHL PUSH2 0x1243 JUMP JUMPDEST PUSH1 0x2 SLOAD DUP2 GT ISZERO PUSH2 0x554 JUMPI PUSH1 0x40 MLOAD PUSH32 0x8C379A000000000000000000000000000000000000000000000000000000000 DUP2 MSTORE PUSH1 0x4 ADD PUSH2 0x54B SWAP1 PUSH2 0x1A58 JUMP JUMPDEST PUSH1 0x40 MLOAD DUP1 SWAP2 SUB SWAP1 REVERT JUMPDEST PUSH2 0x568 PUSH8 0x3CBE34CA8FDF832D PUSH1 0xC0 SHL PUSH2 0x1243 JUMP JUMPDEST PUSH2 0x57C PUSH8 0x683520000D7885C8 PUSH1 0xC0 SHL PUSH2 0x1243 JUMP JUMPDEST DUP1 PUSH1 0x2 PUSH1 0x0 DUP3 DUP3 SLOAD PUSH2 0x58E SWAP2 SWAP1 PUSH2 0x1AA7 JUMP JUMPDEST SWAP3 POP POP DUP2 SWAP1 SSTORE POP PUSH2 0x5A9 PUSH8 0x23F8410F6D3A5747 PUSH1 0xC0 SHL PUSH2 0x1243 JUMP JUMPDEST PUSH2 0x5BD PUSH8 0xC53E754CA15346ED PUSH1 0xC0 SHL PUSH2 0x1243 JUMP JUMPDEST PUSH1 0x0 PUSH1 0x1 PUSH1 0x0 SWAP1 SLOAD SWAP1 PUSH2 0x100 EXP SWAP1 DIV PUSH20 0xFFFFFFFFFFFFFFFFFFFFFFFFFFFFFFFFFFFFFFFF AND PUSH20 0xFFFFFFFFFFFFFFFFFFFFFFFFFFFFFFFFFFFFFFFF AND DUP3 PUSH1 0x40 MLOAD PUSH2 0x605 SWAP1 PUSH2 0x1B0C JUMP JUMPDEST PUSH1 0x0 PUSH1 0x40 MLOAD DUP1 DUP4 SUB DUP2 DUP6 DUP8 GAS CALL SWAP3 POP POP POP RETURNDATASIZE DUP1 PUSH1 0x0 DUP2 EQ PUSH2 0x642 JUMPI PUSH1 0x40 MLOAD SWAP2 POP PUSH1 0x1F NOT PUSH1 0x3F RETURNDATASIZE ADD AND DUP3 ADD PUSH1 0x40 MSTORE RETURNDATASIZE DUP3 MSTORE RETURNDATASIZE PUSH1 0x0 PUSH1 0x20 DUP5 ADD RETURNDATACOPY PUSH2 0x647 JUMP JUMPDEST PUSH1 0x60 SWAP2 POP JUMPDEST POP POP SWAP1 POP PUSH2 0x65F PUSH8 0x5311D05CB7E2AEB3 PUSH1 0xC0 SHL PUSH2 0x1243 JUMP JUMPDEST PUSH2 0x673 PUSH8 0x2365E4C686D10CA5 PUSH1 0xC0 SHL PUSH2 0x1243 JUMP JUMPDEST PUSH2 0x687 PUSH8 0x4BE94397F8C615A5 PUSH1 0xC0 SHL PUSH2 0x1243 JUMP JUMPDEST DUP1 PUSH2 0x6C7 JUMPI PUSH1 0x40 MLOAD PUSH32 0x8C379A000000000000000000000000000000000000000000000000000000000 DUP2 MSTORE PUSH1 0x4 ADD PUSH2 0x6BE SWAP1 PUSH2 0x1B6D JUMP JUMPDEST PUSH1 0x40 MLOAD DUP1 SWAP2 SUB SWAP1 REVERT JUMPDEST PUSH2 0x6DB PUSH8 0x1C78CF6ABAF6875B PUSH1 0xC0 SHL PUSH2 0x1243 JUMP JUMPDEST POP POP JUMP JUMPDEST PUSH1 0x1 PUSH1 0x0 SWAP1 SLOAD SWAP1 PUSH2 0x100 EXP SWAP1 DIV PUSH20 0xFFFFFFFFFFFFFFFFFFFFFFFFFFFFFFFFFFFFFFFF AND DUP2 JUMP JUMPDEST PUSH2 0x719 PUSH8 0x75FC5917F01FD47D PUSH1 0xC0 SHL PUSH2 0x1243 JUMP JUMPDEST PUSH2 0x72D PUSH8 0x6B7412F0187B8C6A PUSH1 0xC0 SHL PUSH2 0x1243 JUMP JUMPDEST PUSH2 0x741 PUSH8 0x1548057C0668ADB9 PUSH1 0xC0 SHL PUSH2 0x1243 JUMP JUMPDEST PUSH2 0x755 PUSH8 0x5998ABB5C8A9830D PUSH1 0xC0 SHL PUSH2 0x1243 JUMP JUMPDEST PUSH1 0x6 DUP1 SLOAD SWAP1 POP DUP2 MLOAD EQ PUSH2 0x79D JUMPI PUSH1 0x40 MLOAD PUSH32 0x8C379A000000000000000000000000000000000000000000000000000000000 DUP2 MSTORE PUSH1 0x4 ADD PUSH2 0x794 SWAP1 PUSH2 0x1C25 JUMP JUMPDEST PUSH1 0x40 MLOAD DUP1 SWAP2 SUB SWAP1 REVERT JUMPDEST PUSH2 0x7B1 PUSH8 0x2A81AAC93D281A77 PUSH1 0xC0 SHL PUSH2 0x1243 JUMP JUMPDEST PUSH2 0x7C5 PUSH8 0x7898F7DF70BE014E PUSH1 0xC0 SHL PUSH2 0x1243 JUMP JUMPDEST PUSH2 0x7D9 PUSH8 0x304EDA2A5827BEEF PUSH1 0xC0 SHL PUSH2 0x1243 JUMP JUMPDEST PUSH1 0x0 PUSH2 0x7EF PUSH8 0x8370DABB1F85B078 PUSH1 0xC0 SHL PUSH2 0x1243 JUMP JUMPDEST PUSH2 0x803 PUSH8 0x84B70AC182986056 PUSH1 0xC0 SHL PUSH2 0x1243 JUMP JUMPDEST PUSH1 0x0 PUSH2 0x819 PUSH8 0xF608C38C05DC6040 PUSH1 0xC0 SHL PUSH2 0x1243 JUMP JUMPDEST PUSH2 0x82D PUSH8 0x57866CC209DC0C07 PUSH1 0xC0 SHL PUSH2 0x1243 JUMP JUMPDEST PUSH1 0x0 JUMPDEST DUP4 MLOAD DUP2 PUSH1 0xFF AND LT ISZERO PUSH2 0x933 JUMPI PUSH2 0x850 PUSH8 0x5AAE15FA8061E832 PUSH1 0xC0 SHL PUSH2 0x1243 JUMP JUMPDEST DUP4 DUP2 PUSH1 0xFF AND DUP2 MLOAD DUP2 LT PUSH2 0x866 JUMPI PUSH2 0x865 PUSH2 0x19CC JUMP JUMPDEST JUMPDEST PUSH1 0x20 MUL PUSH1 0x20 ADD ADD MLOAD PUSH1 0x6 DUP3 PUSH1 0xFF AND DUP2 SLOAD DUP2 LT PUSH2 0x885 JUMPI PUSH2 0x884 PUSH2 0x19CC JUMP JUMPDEST JUMPDEST SWAP1 PUSH1 0x0 MSTORE PUSH1 0x20 PUSH1 0x0 KECCAK256 SWAP1 PUSH1 0x2 MUL ADD PUSH1 0x1 ADD SLOAD PUSH2 0x8A1 SWAP2 SWAP1 PUSH2 0x1C45 JUMP JUMPDEST DUP4 PUSH2 0x8AC SWAP2 SWAP1 PUSH2 0x1C87 JUMP JUMPDEST SWAP3 POP PUSH2 0x8C2 PUSH8 0x7FAD7D5FD9A12958 PUSH1 0xC0 SHL PUSH2 0x1243 JUMP JUMPDEST DUP4 DUP2 PUSH1 0xFF AND DUP2 MLOAD DUP2 LT PUSH2 0x8D8 JUMPI PUSH2 0x8D7 PUSH2 0x19CC JUMP JUMPDEST JUMPDEST PUSH1 0x20 MUL PUSH1 0x20 ADD ADD MLOAD PUSH1 0x6 DUP3 PUSH1 0xFF AND DUP2 SLOAD DUP2 LT PUSH2 0x8F7 JUMPI PUSH2 0x8F6 PUSH2 0x19CC JUMP JUMPDEST JUMPDEST SWAP1 PUSH1 0x0 MSTORE PUSH1 0x20 PUSH1 0x0 KECCAK256 SWAP1 PUSH1 0x2 MUL ADD PUSH1 0x0 ADD SLOAD PUSH2 0x913 SWAP2 SWAP1 PUSH2 0x1C45 JUMP JUMPDEST DUP3 PUSH2 0x91E SWAP2 SWAP1 PUSH2 0x1C87 JUMP JUMPDEST SWAP2 POP DUP1 DUP1 PUSH2 0x92B SWAP1 PUSH2 0x1CBB JUMP JUMPDEST SWAP2 POP POP PUSH2 0x830 JUMP JUMPDEST POP PUSH2 0x948 PUSH8 0xE788E338F8A2EA6E PUSH1 0xC0 SHL PUSH2 0x1243 JUMP JUMPDEST PUSH2 0x95C PUSH8 0xD8B9CF910694754 PUSH1 0xC0 SHL PUSH2 0x1243 JUMP JUMPDEST PUSH2 0x970 PUSH8 0xB94AF9B1F30C6C9E PUSH1 0xC0 SHL PUSH2 0x1243 JUMP JUMPDEST DUP2 CALLVALUE EQ PUSH2 0x9B2 JUMPI PUSH1 0x40 MLOAD PUSH32 0x8C379A000000000000000000000000000000000000000000000000000000000 DUP2 MSTORE PUSH1 0x4 ADD PUSH2 0x9A9 SWAP1 PUSH2 0x1D30 JUMP JUMPDEST PUSH1 0x40 MLOAD DUP1 SWAP2 SUB SWAP1 REVERT JUMPDEST PUSH2 0x9C6 PUSH8 0x53D01DBFAEBAB48C PUSH1 0xC0 SHL PUSH2 0x1243 JUMP JUMPDEST PUSH2 0x9DA PUSH8 0xAFCD9B591327A8D PUSH1 0xC0 SHL PUSH2 0x1243 JUMP JUMPDEST DUP1 PUSH1 0x3 PUSH1 0x0 CALLER PUSH20 0xFFFFFFFFFFFFFFFFFFFFFFFFFFFFFFFFFFFFFFFF AND PUSH20 0xFFFFFFFFFFFFFFFFFFFFFFFFFFFFFFFFFFFFFFFF AND DUP2 MSTORE PUSH1 0x20 ADD SWAP1 DUP2 MSTORE PUSH1 0x20 ADD PUSH1 0x0 KECCAK256 PUSH1 0x0 DUP3 DUP3 SLOAD PUSH2 0xA29 SWAP2 SWAP1 PUSH2 0x1C87 JUMP JUMPDEST SWAP3 POP POP DUP2 SWAP1 SSTORE POP PUSH2 0xA44 PUSH8 0x7814E8169CF96108 PUSH1 0xC0 SHL PUSH2 0x1243 JUMP JUMPDEST DUP2 PUSH1 0x2 PUSH1 0x0 DUP3 DUP3 SLOAD PUSH2 0xA56 SWAP2 SWAP1 PUSH2 0x1C87 JUMP JUMPDEST SWAP3 POP POP DUP2 SWAP1 SSTORE POP PUSH2 0xA71 PUSH8 0x951C0B491ADB004C PUSH1 0xC0 SHL PUSH2 0x1243 JUMP JUMPDEST PUSH2 0xA85 PUSH8 0x286134D8D7A9C60E PUSH1 0xC0 SHL PUSH2 0x1243 JUMP JUMPDEST PUSH32 0x64131D7433D64D592FAD1870936554CDB1B7276A745CB4795B36678FC5237F88 CALLER DUP5 DUP5 DUP5 PUSH1 0x40 MLOAD PUSH2 0xABA SWAP5 SWAP4 SWAP3 SWAP2 SWAP1 PUSH2 0x1DFF JUMP JUMPDEST PUSH1 0x40 MLOAD DUP1 SWAP2 SUB SWAP1 LOG1 POP POP POP JUMP JUMPDEST PUSH1 0x0 PUSH2 0xADD PUSH8 0x22C7EADD2445823F PUSH1 0xC0 SHL PUSH2 0x1243 JUMP JUMPDEST PUSH2 0xAF1 PUSH8 0x72709C7B6E9357CD PUSH1 0xC0 SHL PUSH2 0x1243 JUMP JUMPDEST PUSH2 0xB05 PUSH8 0xB9906DBF4C05B49B PUSH1 0xC0 SHL PUSH2 0x1243 JUMP JUMPDEST PUSH1 0x3 PUSH1 0x0 DUP4 PUSH20 0xFFFFFFFFFFFFFFFFFFFFFFFFFFFFFFFFFFFFFFFF AND PUSH20 0xFFFFFFFFFFFFFFFFFFFFFFFFFFFFFFFFFFFFFFFF AND DUP2 MSTORE PUSH1 0x20 ADD SWAP1 DUP2 MSTORE PUSH1 0x20 ADD PUSH1 0x0 KECCAK256 SLOAD SWAP1 POP SWAP2 SWAP1 POP JUMP JUMPDEST PUSH1 0x60 PUSH2 0xB62 PUSH8 0xFA86D4366EDA8AB7 PUSH1 0xC0 SHL PUSH2 0x1243 JUMP JUMPDEST PUSH2 0xB76 PUSH8 0xC5C91996C79BD1B2 PUSH1 0xC0 SHL PUSH2 0x1243 JUMP JUMPDEST PUSH2 0xB8A PUSH8 0x5A77752AEC0814C7 PUSH1 0xC0 SHL PUSH2 0x1243 JUMP JUMPDEST PUSH1 0x6 DUP1 SLOAD DUP1 PUSH1 0x20 MUL PUSH1 0x20 ADD PUSH1 0x40 MLOAD SWAP1 DUP2 ADD PUSH1 0x40 MSTORE DUP1 SWAP3 SWAP2 SWAP1 DUP2 DUP2 MSTORE PUSH1 0x20 ADD PUSH1 0x0 SWAP1 JUMPDEST DUP3 DUP3 LT ISZERO PUSH2 0xBF2 JUMPI DUP4 DUP3 SWAP1 PUSH1 0x0 MSTORE PUSH1 0x20 PUSH1 0x0 KECCAK256 SWAP1 PUSH1 0x2 MUL ADD PUSH1 0x40 MLOAD DUP1 PUSH1 0x40 ADD PUSH1 0x40 MSTORE SWAP1 DUP2 PUSH1 0x0 DUP3 ADD SLOAD DUP2 MSTORE PUSH1 0x20 ADD PUSH1 0x1 DUP3 ADD SLOAD DUP2 MSTORE POP POP DUP2 MSTORE PUSH1 0x20 ADD SWAP1 PUSH1 0x1 ADD SWAP1 PUSH2 0xBAC JUMP JUMPDEST POP POP POP POP SWAP1 POP SWAP1 JUMP JUMPDEST PUSH1 0x5 PUSH1 0x0 SWAP1 SLOAD SWAP1 PUSH2 0x100 EXP SWAP1 DIV PUSH1 0xFF AND DUP2 JUMP JUMPDEST PUSH2 0xC16 PUSH2 0x1246 JUMP JUMPDEST PUSH2 0xC20 PUSH1 0x0 PUSH2 0x12C4 JUMP JUMPDEST JUMP JUMPDEST PUSH1 0x0 PUSH2 0xC38 PUSH8 0x5D74EAF831BA9CEC PUSH1 0xC0 SHL PUSH2 0x1243 JUMP JUMPDEST PUSH2 0xC4C PUSH8 0xECF275499B67C62A PUSH1 0xC0 SHL PUSH2 0x1243 JUMP JUMPDEST PUSH2 0xC60 PUSH8 0x4DC1CDE47AF9DA14 PUSH1 0xC0 SHL PUSH2 0x1243 JUMP JUMPDEST PUSH1 0x5 PUSH1 0x0 SWAP1 SLOAD SWAP1 PUSH2 0x100 EXP SWAP1 DIV PUSH1 0xFF AND SWAP1 POP SWAP1 JUMP JUMPDEST PUSH2 0xC89 PUSH8 0x5A5FD3E34549812B PUSH1 0xC0 SHL PUSH2 0x1243 JUMP JUMPDEST PUSH2 0xC91 PUSH2 0x1246 JUMP JUMPDEST PUSH2 0xCA5 PUSH8 0xC63E22141E134FD3 PUSH1 0xC0 SHL PUSH2 0x1243 JUMP JUMPDEST PUSH2 0xCB9 PUSH8 0x969CF58E607E89C7 PUSH1 0xC0 SHL PUSH2 0x1243 JUMP JUMPDEST PUSH2 0xCCD PUSH8 0xFE59FFD8BD68F839 PUSH1 0xC0 SHL PUSH2 0x1243 JUMP JUMPDEST PUSH2 0xCE1 PUSH8 0x1CD32AA676E400B8 PUSH1 0xC0 SHL PUSH2 0x1243 JUMP JUMPDEST PUSH2 0xCF5 PUSH8 0xC77EFDFA347E150C PUSH1 0xC0 SHL PUSH2 0x1243 JUMP JUMPDEST DUP2 DUP2 SWAP1 POP DUP5 DUP5 SWAP1 POP EQ PUSH2 0xD3D JUMPI PUSH1 0x40 MLOAD PUSH32 0x8C379A000000000000000000000000000000000000000000000000000000000 DUP2 MSTORE PUSH1 0x4 ADD PUSH2 0xD34 SWAP1 PUSH2 0x1EBD JUMP JUMPDEST PUSH1 0x40 MLOAD DUP1 SWAP2 SUB SWAP1 REVERT JUMPDEST PUSH2 0xD51 PUSH8 0x9174C737664E82C5 PUSH1 0xC0 SHL PUSH2 0x1243 JUMP JUMPDEST PUSH2 0xD65 PUSH8 0x76F3EE132309F4C3 PUSH1 0xC0 SHL PUSH2 0x1243 JUMP JUMPDEST PUSH2 0xD79 PUSH8 0xB45B991D197DA363 PUSH1 0xC0 SHL PUSH2 0x1243 JUMP JUMPDEST PUSH2 0xD8D PUSH8 0x4393F34E7C451438 PUSH1 0xC0 SHL PUSH2 0x1243 JUMP JUMPDEST PUSH1 0x5 PUSH1 0x0 SWAP1 SLOAD SWAP1 PUSH2 0x100 EXP SWAP1 DIV PUSH1 0xFF AND PUSH1 0xFF AND DUP5 DUP5 SWAP1 POP EQ PUSH2 0xDE4 JUMPI PUSH1 0x40 MLOAD PUSH32 0x8C379A000000000000000000000000000000000000000000000000000000000 DUP2 MSTORE PUSH1 0x4 ADD PUSH2 0xDDB SWAP1 PUSH2 0x1F4F JUMP JUMPDEST PUSH1 0x40 MLOAD DUP1 SWAP2 SUB SWAP1 REVERT JUMPDEST PUSH2 0xDF8 PUSH8 0x71758DAD1A4AF87D PUSH1 0xC0 SHL PUSH2 0x1243 JUMP JUMPDEST PUSH2 0xE0C PUSH8 0x72ADA53BAF1CF5B8 PUSH1 0xC0 SHL PUSH2 0x1243 JUMP JUMPDEST PUSH2 0xE20 PUSH8 0xA8C763D59DB83B8C PUSH1 0xC0 SHL PUSH2 0x1243 JUMP JUMPDEST PUSH1 0x0 JUMPDEST DUP5 DUP5 SWAP1 POP DUP2 PUSH1 0xFF AND LT ISZERO PUSH2 0xEE1 JUMPI PUSH2 0xE45 PUSH8 0xC1F3AB49205D3C80 PUSH1 0xC0 SHL PUSH2 0x1243 JUMP JUMPDEST PUSH1 0x40 MLOAD DUP1 PUSH1 0x40 ADD PUSH1 0x40 MSTORE DUP1 DUP7 DUP7 DUP5 PUSH1 0xFF AND DUP2 DUP2 LT PUSH2 0xE66 JUMPI PUSH2 0xE65 PUSH2 0x19CC JUMP JUMPDEST JUMPDEST SWAP1 POP PUSH1 0x20 MUL ADD CALLDATALOAD DUP2 MSTORE PUSH1 0x20 ADD DUP5 DUP5 DUP5 PUSH1 0xFF AND DUP2 DUP2 LT PUSH2 0xE88 JUMPI PUSH2 0xE87 PUSH2 0x19CC JUMP JUMPDEST JUMPDEST SWAP1 POP PUSH1 0x20 MUL ADD CALLDATALOAD DUP2 MSTORE POP PUSH1 0x6 DUP3 PUSH1 0xFF AND DUP2 SLOAD DUP2 LT PUSH2 0xEA9 JUMPI PUSH2 0xEA8 PUSH2 0x19CC JUMP JUMPDEST JUMPDEST SWAP1 PUSH1 0x0 MSTORE PUSH1 0x20 PUSH1 0x0 KECCAK256 SWAP1 PUSH1 0x2 MUL ADD PUSH1 0x0 DUP3 ADD MLOAD DUP2 PUSH1 0x0 ADD SSTORE PUSH1 0x20 DUP3 ADD MLOAD DUP2 PUSH1 0x1 ADD SSTORE SWAP1 POP POP DUP1 DUP1 PUSH2 0xED9 SWAP1 PUSH2 0x1CBB JUMP JUMPDEST SWAP2 POP POP PUSH2 0xE23 JUMP JUMPDEST POP POP POP POP POP JUMP JUMPDEST PUSH2 0xEFC PUSH8 0x91BF7BEA1DC7CA1A PUSH1 0xC0 SHL PUSH2 0x1243 JUMP JUMPDEST PUSH2 0xF04 PUSH2 0x1246 JUMP JUMPDEST PUSH2 0xF18 PUSH8 0x5A39EBC1D7F4FD56 PUSH1 0xC0 SHL PUSH2 0x1243 JUMP JUMPDEST PUSH2 0xF2C PUSH8 0xA4F4223CF61A49E9 PUSH1 0xC0 SHL PUSH2 0x1243 JUMP JUMPDEST PUSH2 0xF40 PUSH8 0xD7251BBD9ACB4294 PUSH1 0xC0 SHL PUSH2 0x1243 JUMP JUMPDEST PUSH2 0xF54 PUSH8 0xBDAE393DB0A59521 PUSH1 0xC0 SHL PUSH2 0x1243 JUMP JUMPDEST PUSH1 0x0 PUSH1 0x2 SLOAD SWAP1 POP PUSH2 0xF6F PUSH8 0x5387AC8A3DABA6F3 PUSH1 0xC0 SHL PUSH2 0x1243 JUMP JUMPDEST PUSH1 0x0 PUSH1 0x2 DUP2 SWAP1 SSTORE POP PUSH2 0xF8B PUSH8 0x260D6DCFB0D4FAA8 PUSH1 0xC0 SHL PUSH2 0x1243 JUMP JUMPDEST PUSH2 0xF9F PUSH8 0xC8DA8B6018484FDD PUSH1 0xC0 SHL PUSH2 0x1243 JUMP JUMPDEST PUSH1 0x0 PUSH1 0x1 PUSH1 0x0 SWAP1 SLOAD SWAP1 PUSH2 0x100 EXP SWAP1 DIV PUSH20 0xFFFFFFFFFFFFFFFFFFFFFFFFFFFFFFFFFFFFFFFF AND PUSH20 0xFFFFFFFFFFFFFFFFFFFFFFFFFFFFFFFFFFFFFFFF AND DUP3 PUSH1 0x40 MLOAD PUSH2 0xFE7 SWAP1 PUSH2 0x1B0C JUMP JUMPDEST PUSH1 0x0 PUSH1 0x40 MLOAD DUP1 DUP4 SUB DUP2 DUP6 DUP8 GAS CALL SWAP3 POP POP POP RETURNDATASIZE DUP1 PUSH1 0x0 DUP2 EQ PUSH2 0x1024 JUMPI PUSH1 0x40 MLOAD SWAP2 POP PUSH1 0x1F NOT PUSH1 0x3F RETURNDATASIZE ADD AND DUP3 ADD PUSH1 0x40 MSTORE RETURNDATASIZE DUP3 MSTORE RETURNDATASIZE PUSH1 0x0 PUSH1 0x20 DUP5 ADD RETURNDATACOPY PUSH2 0x1029 JUMP JUMPDEST PUSH1 0x60 SWAP2 POP JUMPDEST POP POP SWAP1 POP PUSH2 0x1041 PUSH8 0x550104F1B9EF709F PUSH1 0xC0 SHL PUSH2 0x1243 JUMP JUMPDEST PUSH2 0x1055 PUSH8 0x79BCAE42A28C6867 PUSH1 0xC0 SHL PUSH2 0x1243 JUMP JUMPDEST PUSH2 0x1069 PUSH8 0xFDE44546DDA266D9 PUSH1 0xC0 SHL PUSH2 0x1243 JUMP JUMPDEST DUP1 PUSH2 0x10A9 JUMPI PUSH1 0x40 MLOAD PUSH32 0x8C379A000000000000000000000000000000000000000000000000000000000 DUP2 MSTORE PUSH1 0x4 ADD PUSH2 0x10A0 SWAP1 PUSH2 0x1FBB JUMP JUMPDEST PUSH1 0x40 MLOAD DUP1 SWAP2 SUB SWAP1 REVERT JUMPDEST PUSH2 0x10BD PUSH8 0xB4B7595B9C316579 PUSH1 0xC0 SHL PUSH2 0x1243 JUMP JUMPDEST POP POP JUMP JUMPDEST PUSH2 0x10D5 PUSH8 0xA28C54573F53A73E PUSH1 0xC0 SHL PUSH2 0x1243 JUMP JUMPDEST PUSH2 0x10DD PUSH2 0x1246 JUMP JUMPDEST PUSH2 0x10F1 PUSH8 0x3C2250C28AE50679 PUSH1 0xC0 SHL PUSH2 0x1243 JUMP JUMPDEST PUSH2 0x1105 PUSH8 0xD055E9EE38F82405 PUSH1 0xC0 SHL PUSH2 0x1243 JUMP JUMPDEST PUSH2 0x1119 PUSH8 0x19B360FDD690C0FF PUSH1 0xC0 SHL PUSH2 0x1243 JUMP JUMPDEST DUP1 PUSH1 0x1 PUSH1 0x0 PUSH2 0x100 EXP DUP2 SLOAD DUP2 PUSH20 0xFFFFFFFFFFFFFFFFFFFFFFFFFFFFFFFFFFFFFFFF MUL NOT AND SWAP1 DUP4 PUSH20 0xFFFFFFFFFFFFFFFFFFFFFFFFFFFFFFFFFFFFFFFF AND MUL OR SWAP1 SSTORE POP POP JUMP JUMPDEST PUSH1 0x2 SLOAD DUP2 JUMP JUMPDEST PUSH1 0x0 DUP1 PUSH1 0x0 SWAP1 SLOAD SWAP1 PUSH2 0x100 EXP SWAP1 DIV PUSH20 0xFFFFFFFFFFFFFFFFFFFFFFFFFFFFFFFFFFFFFFFF AND SWAP1 POP SWAP1 JUMP JUMPDEST PUSH1 0x6 DUP2 DUP2 SLOAD DUP2 LT PUSH2 0x119C JUMPI PUSH1 0x0 DUP1 REVERT JUMPDEST SWAP1 PUSH1 0x0 MSTORE PUSH1 0x20 PUSH1 0x0 KECCAK256 SWAP1 PUSH1 0x2 MUL ADD PUSH1 0x0 SWAP2 POP SWAP1 POP DUP1 PUSH1 0x0 ADD SLOAD SWAP1 DUP1 PUSH1 0x1 ADD SLOAD SWAP1 POP DUP3 JUMP JUMPDEST PUSH2 0x11C8 PUSH2 0x1246 JUMP JUMPDEST PUSH1 0x0 PUSH20 0xFFFFFFFFFFFFFFFFFFFFFFFFFFFFFFFFFFFFFFFF AND DUP2 PUSH20 0xFFFFFFFFFFFFFFFFFFFFFFFFFFFFFFFFFFFFFFFF AND SUB PUSH2 0x1237 JUMPI PUSH1 0x40 MLOAD PUSH32 0x8C379A000000000000000000000000000000000000000000000000000000000 DUP2 MSTORE PUSH1 0x4 ADD PUSH2 0x122E SWAP1 PUSH2 0x204D JUMP JUMPDEST PUSH1 0x40 MLOAD DUP1 SWAP2 SUB SWAP1 REVERT JUMPDEST PUSH2 0x1240 DUP2 PUSH2 0x12C4 JUMP JUMPDEST POP JUMP JUMPDEST POP JUMP JUMPDEST PUSH2 0x124E PUSH2 0x1388 JUMP JUMPDEST PUSH20 0xFFFFFFFFFFFFFFFFFFFFFFFFFFFFFFFFFFFFFFFF AND PUSH2 0x126C PUSH2 0x1163 JUMP JUMPDEST PUSH20 0xFFFFFFFFFFFFFFFFFFFFFFFFFFFFFFFFFFFFFFFF AND EQ PUSH2 0x12C2 JUMPI PUSH1 0x40 MLOAD PUSH32 0x8C379A000000000000000000000000000000000000000000000000000000000 DUP2 MSTORE PUSH1 0x4 ADD PUSH2 0x12B9 SWAP1 PUSH2 0x20B9 JUMP JUMPDEST PUSH1 0x40 MLOAD DUP1 SWAP2 SUB SWAP1 REVERT JUMPDEST JUMP JUMPDEST PUSH1 0x0 DUP1 PUSH1 0x0 SWAP1 SLOAD SWAP1 PUSH2 0x100 EXP SWAP1 DIV PUSH20 0xFFFFFFFFFFFFFFFFFFFFFFFFFFFFFFFFFFFFFFFF AND SWAP1 POP DUP2 PUSH1 0x0 DUP1 PUSH2 0x100 EXP DUP2 SLOAD DUP2 PUSH20 0xFFFFFFFFFFFFFFFFFFFFFFFFFFFFFFFFFFFFFFFF MUL NOT AND SWAP1 DUP4 PUSH20 0xFFFFFFFFFFFFFFFFFFFFFFFFFFFFFFFFFFFFFFFF AND MUL OR SWAP1 SSTORE POP DUP2 PUSH20 0xFFFFFFFFFFFFFFFFFFFFFFFFFFFFFFFFFFFFFFFF AND DUP2 PUSH20 0xFFFFFFFFFFFFFFFFFFFFFFFFFFFFFFFFFFFFFFFF AND PUSH32 0x8BE0079C531659141344CD1FD0A4F28419497F9722A3DAAFE3B4186F6B6457E0 PUSH1 0x40 MLOAD PUSH1 0x40 MLOAD DUP1 SWAP2 SUB SWAP1 LOG3 POP POP JUMP JUMPDEST PUSH1 0x0 CALLER SWAP1 POP SWAP1 JUMP JUMPDEST PUSH1 0x40 MLOAD DUP1 PUSH1 0x40 ADD PUSH1 0x40 MSTORE DUP1 PUSH1 0x0 DUP2 MSTORE PUSH1 0x20 ADD PUSH1 0x0 DUP2 MSTORE POP SWAP1 JUMP JUMPDEST PUSH1 0x0 PUSH1 0x40 MLOAD SWAP1 POP SWAP1 JUMP JUMPDEST PUSH1 0x0 DUP1 REVERT JUMPDEST PUSH1 0x0 DUP1 REVERT JUMPDEST PUSH1 0x0 PUSH20 0xFFFFFFFFFFFFFFFFFFFFFFFFFFFFFFFFFFFFFFFF DUP3 AND SWAP1 POP SWAP2 SWAP1 POP JUMP JUMPDEST PUSH1 0x0 PUSH2 0x13E9 DUP3 PUSH2 0x13BE JUMP JUMPDEST SWAP1 POP SWAP2 SWAP1 POP JUMP JUMPDEST PUSH2 0x13F9 DUP2 PUSH2 0x13DE JUMP JUMPDEST DUP2 EQ PUSH2 0x1404 JUMPI PUSH1 0x0 DUP1 REVERT JUMPDEST POP JUMP JUMPDEST PUSH1 0x0 DUP2 CALLDATALOAD SWAP1 POP PUSH2 0x1416 DUP2 PUSH2 0x13F0 JUMP JUMPDEST SWAP3 SWAP2 POP POP JUMP JUMPDEST PUSH1 0x0 PUSH1 0x20 DUP3 DUP5 SUB SLT ISZERO PUSH2 0x1432 JUMPI PUSH2 0x1431 PUSH2 0x13B4 JUMP JUMPDEST JUMPDEST PUSH1 0x0 PUSH2 0x1440 DUP5 DUP3 DUP6 ADD PUSH2 0x1407 JUMP JUMPDEST SWAP2 POP POP SWAP3 SWAP2 POP POP JUMP JUMPDEST PUSH1 0x0 DUP2 SWAP1 POP SWAP2 SWAP1 POP JUMP JUMPDEST PUSH2 0x145C DUP2 PUSH2 0x1449 JUMP JUMPDEST DUP3 MSTORE POP POP JUMP JUMPDEST PUSH1 0x0 PUSH1 0x20 DUP3 ADD SWAP1 POP PUSH2 0x1477 PUSH1 0x0 DUP4 ADD DUP5 PUSH2 0x1453 JUMP JUMPDEST SWAP3 SWAP2 POP POP JUMP JUMPDEST PUSH1 0x0 PUSH1 0xFF DUP3 AND SWAP1 POP SWAP2 SWAP1 POP JUMP JUMPDEST PUSH2 0x1493 DUP2 PUSH2 0x147D JUMP JUMPDEST DUP2 EQ PUSH2 0x149E JUMPI PUSH1 0x0 DUP1 REVERT JUMPDEST POP JUMP JUMPDEST PUSH1 0x0 DUP2 CALLDATALOAD SWAP1 POP PUSH2 0x14B0 DUP2 PUSH2 0x148A JUMP JUMPDEST SWAP3 SWAP2 POP POP JUMP JUMPDEST PUSH1 0x0 PUSH1 0x20 DUP3 DUP5 SUB SLT ISZERO PUSH2 0x14CC JUMPI PUSH2 0x14CB PUSH2 0x13B4 JUMP JUMPDEST JUMPDEST PUSH1 0x0 PUSH2 0x14DA DUP5 DUP3 DUP6 ADD PUSH2 0x14A1 JUMP JUMPDEST SWAP2 POP POP SWAP3 SWAP2 POP POP JUMP JUMPDEST PUSH2 0x14EC DUP2 PUSH2 0x1449 JUMP JUMPDEST DUP3 MSTORE POP POP JUMP JUMPDEST PUSH1 0x40 DUP3 ADD PUSH1 0x0 DUP3 ADD MLOAD PUSH2 0x1508 PUSH1 0x0 DUP6 ADD DUP3 PUSH2 0x14E3 JUMP JUMPDEST POP PUSH1 0x20 DUP3 ADD MLOAD PUSH2 0x151B PUSH1 0x20 DUP6 ADD DUP3 PUSH2 0x14E3 JUMP JUMPDEST POP POP POP POP JUMP JUMPDEST PUSH1 0x0 PUSH1 0x40 DUP3 ADD SWAP1 POP PUSH2 0x1536 PUSH1 0x0 DUP4 ADD DUP5 PUSH2 0x14F2 JUMP JUMPDEST SWAP3 SWAP2 POP POP JUMP JUMPDEST PUSH2 0x1545 DUP2 PUSH2 0x1449 JUMP JUMPDEST DUP2 EQ PUSH2 0x1550 JUMPI PUSH1 0x0 DUP1 REVERT JUMPDEST POP JUMP JUMPDEST PUSH1 0x0 DUP2 CALLDATALOAD SWAP1 POP PUSH2 0x1562 DUP2 PUSH2 0x153C JUMP JUMPDEST SWAP3 SWAP2 POP POP JUMP JUMPDEST PUSH1 0x0 PUSH1 0x20 DUP3 DUP5 SUB SLT ISZERO PUSH2 0x157E JUMPI PUSH2 0x157D PUSH2 0x13B4 JUMP JUMPDEST JUMPDEST PUSH1 0x0 PUSH2 0x158C DUP5 DUP3 DUP6 ADD PUSH2 0x1553 JUMP JUMPDEST SWAP2 POP POP SWAP3 SWAP2 POP POP JUMP JUMPDEST PUSH1 0x0 PUSH2 0x15A0 DUP3 PUSH2 0x13BE JUMP JUMPDEST SWAP1 POP SWAP2 SWAP1 POP JUMP JUMPDEST PUSH2 0x15B0 DUP2 PUSH2 0x1595 JUMP JUMPDEST DUP3 MSTORE POP POP JUMP JUMPDEST PUSH1 0x0 PUSH1 0x20 DUP3 ADD SWAP1 POP PUSH2 0x15CB PUSH1 0x0 DUP4 ADD DUP5 PUSH2 0x15A7 JUMP JUMPDEST SWAP3 SWAP2 POP POP JUMP JUMPDEST PUSH1 0x0 DUP1 REVERT JUMPDEST PUSH1 0x0 PUSH1 0x1F NOT PUSH1 0x1F DUP4 ADD AND SWAP1 POP SWAP2 SWAP1 POP JUMP JUMPDEST PUSH32 0x4E487B7100000000000000000000000000000000000000000000000000000000 PUSH1 0x0 MSTORE PUSH1 0x41 PUSH1 0x4 MSTORE PUSH1 0x24 PUSH1 0x0 REVERT JUMPDEST PUSH2 0x161F DUP3 PUSH2 0x15D6 JUMP JUMPDEST DUP2 ADD DUP2 DUP2 LT PUSH8 0xFFFFFFFFFFFFFFFF DUP3 GT OR ISZERO PUSH2 0x163E JUMPI PUSH2 0x163D PUSH2 0x15E7 JUMP JUMPDEST JUMPDEST DUP1 PUSH1 0x40 MSTORE POP POP POP JUMP JUMPDEST PUSH1 0x0 PUSH2 0x1651 PUSH2 0x13AA JUMP JUMPDEST SWAP1 POP PUSH2 0x165D DUP3 DUP3 PUSH2 0x1616 JUMP JUMPDEST SWAP2 SWAP1 POP JUMP JUMPDEST PUSH1 0x0 PUSH8 0xFFFFFFFFFFFFFFFF DUP3 GT ISZERO PUSH2 0x167D JUMPI PUSH2 0x167C PUSH2 0x15E7 JUMP JUMPDEST JUMPDEST PUSH1 0x20 DUP3 MUL SWAP1 POP PUSH1 0x20 DUP2 ADD SWAP1 POP SWAP2 SWAP1 POP JUMP JUMPDEST PUSH1 0x0 DUP1 REVERT JUMPDEST PUSH1 0x0 PUSH2 0x16A6 PUSH2 0x16A1 DUP5 PUSH2 0x1662 JUMP JUMPDEST PUSH2 0x1647 JUMP JUMPDEST SWAP1 POP DUP1 DUP4 DUP3 MSTORE PUSH1 0x20 DUP3 ADD SWAP1 POP PUSH1 0x20 DUP5 MUL DUP4 ADD DUP6 DUP2 GT ISZERO PUSH2 0x16C9 JUMPI PUSH2 0x16C8 PUSH2 0x168E JUMP JUMPDEST JUMPDEST DUP4 JUMPDEST DUP2 DUP2 LT ISZERO PUSH2 0x16F2 JUMPI DUP1 PUSH2 0x16DE DUP9 DUP3 PUSH2 0x1553 JUMP JUMPDEST DUP5 MSTORE PUSH1 0x20 DUP5 ADD SWAP4 POP POP PUSH1 0x20 DUP2 ADD SWAP1 POP PUSH2 0x16CB JUMP JUMPDEST POP POP POP SWAP4 SWAP3 POP POP POP JUMP JUMPDEST PUSH1 0x0 DUP3 PUSH1 0x1F DUP4 ADD SLT PUSH2 0x1711 JUMPI PUSH2 0x1710 PUSH2 0x15D1 JUMP JUMPDEST JUMPDEST DUP2 CALLDATALOAD PUSH2 0x1721 DUP5 DUP3 PUSH1 0x20 DUP7 ADD PUSH2 0x1693 JUMP JUMPDEST SWAP2 POP POP SWAP3 SWAP2 POP POP JUMP JUMPDEST PUSH1 0x0 PUSH1 0x20 DUP3 DUP5 SUB SLT ISZERO PUSH2 0x1740 JUMPI PUSH2 0x173F PUSH2 0x13B4 JUMP JUMPDEST JUMPDEST PUSH1 0x0 DUP3 ADD CALLDATALOAD PUSH8 0xFFFFFFFFFFFFFFFF DUP2 GT ISZERO PUSH2 0x175E JUMPI PUSH2 0x175D PUSH2 0x13B9 JUMP JUMPDEST JUMPDEST PUSH2 0x176A DUP5 DUP3 DUP6 ADD PUSH2 0x16FC JUMP JUMPDEST SWAP2 POP POP SWAP3 SWAP2 POP POP JUMP JUMPDEST PUSH1 0x0 DUP2 MLOAD SWAP1 POP SWAP2 SWAP1 POP JUMP JUMPDEST PUSH1 0x0 DUP3 DUP3 MSTORE PUSH1 0x20 DUP3 ADD SWAP1 POP SWAP3 SWAP2 POP POP JUMP JUMPDEST PUSH1 0x0 DUP2 SWAP1 POP PUSH1 0x20 DUP3 ADD SWAP1 POP SWAP2 SWAP1 POP JUMP JUMPDEST PUSH1 0x40 DUP3 ADD PUSH1 0x0 DUP3 ADD MLOAD PUSH2 0x17B5 PUSH1 0x0 DUP6 ADD DUP3 PUSH2 0x14E3 JUMP JUMPDEST POP PUSH1 0x20 DUP3 ADD MLOAD PUSH2 0x17C8 PUSH1 0x20 DUP6 ADD DUP3 PUSH2 0x14E3 JUMP JUMPDEST POP POP POP POP JUMP JUMPDEST PUSH1 0x0 PUSH2 0x17DA DUP4 DUP4 PUSH2 0x179F JUMP JUMPDEST PUSH1 0x40 DUP4 ADD SWAP1 POP SWAP3 SWAP2 POP POP JUMP JUMPDEST PUSH1 0x0 PUSH1 0x20 DUP3 ADD SWAP1 POP SWAP2 SWAP1 POP JUMP JUMPDEST PUSH1 0x0 PUSH2 0x17FE DUP3 PUSH2 0x1773 JUMP JUMPDEST PUSH2 0x1808 DUP2 DUP6 PUSH2 0x177E JUMP JUMPDEST SWAP4 POP PUSH2 0x1813 DUP4 PUSH2 0x178F JUMP JUMPDEST DUP1 PUSH1 0x0 JUMPDEST DUP4 DUP2 LT ISZERO PUSH2 0x1844 JUMPI DUP2 MLOAD PUSH2 0x182B DUP9 DUP3 PUSH2 0x17CE JUMP JUMPDEST SWAP8 POP PUSH2 0x1836 DUP4 PUSH2 0x17E6 JUMP JUMPDEST SWAP3 POP POP PUSH1 0x1 DUP2 ADD SWAP1 POP PUSH2 0x1817 JUMP JUMPDEST POP DUP6 SWAP4 POP POP POP POP SWAP3 SWAP2 POP POP JUMP JUMPDEST PUSH1 0x0 PUSH1 0x20 DUP3 ADD SWAP1 POP DUP2 DUP2 SUB PUSH1 0x0 DUP4 ADD MSTORE PUSH2 0x186B DUP2 DUP5 PUSH2 0x17F3 JUMP JUMPDEST SWAP1 POP SWAP3 SWAP2 POP POP JUMP JUMPDEST PUSH2 0x187C DUP2 PUSH2 0x147D JUMP JUMPDEST DUP3 MSTORE POP POP JUMP JUMPDEST PUSH1 0x0 PUSH1 0x20 DUP3 ADD SWAP1 POP PUSH2 0x1897 PUSH1 0x0 DUP4 ADD DUP5 PUSH2 0x1873 JUMP JUMPDEST SWAP3 SWAP2 POP POP JUMP JUMPDEST PUSH1 0x0 DUP1 REVERT JUMPDEST PUSH1 0x0 DUP1 DUP4 PUSH1 0x1F DUP5 ADD SLT PUSH2 0x18B8 JUMPI PUSH2 0x18B7 PUSH2 0x15D1 JUMP JUMPDEST JUMPDEST DUP3 CALLDATALOAD SWAP1 POP PUSH8 0xFFFFFFFFFFFFFFFF DUP2 GT ISZERO PUSH2 0x18D5 JUMPI PUSH2 0x18D4 PUSH2 0x189D JUMP JUMPDEST JUMPDEST PUSH1 0x20 DUP4 ADD SWAP2 POP DUP4 PUSH1 0x20 DUP3 MUL DUP4 ADD GT ISZERO PUSH2 0x18F1 JUMPI PUSH2 0x18F0 PUSH2 0x168E JUMP JUMPDEST JUMPDEST SWAP3 POP SWAP3 SWAP1 POP JUMP JUMPDEST PUSH1 0x0 DUP1 PUSH1 0x0 DUP1 PUSH1 0x40 DUP6 DUP8 SUB SLT ISZERO PUSH2 0x1912 JUMPI PUSH2 0x1911 PUSH2 0x13B4 JUMP JUMPDEST JUMPDEST PUSH1 0x0 DUP6 ADD CALLDATALOAD PUSH8 0xFFFFFFFFFFFFFFFF DUP2 GT ISZERO PUSH2 0x1930 JUMPI PUSH2 0x192F PUSH2 0x13B9 JUMP JUMPDEST JUMPDEST PUSH2 0x193C DUP8 DUP3 DUP9 ADD PUSH2 0x18A2 JUMP JUMPDEST SWAP5 POP SWAP5 POP POP PUSH1 0x20 DUP6 ADD CALLDATALOAD PUSH8 0xFFFFFFFFFFFFFFFF DUP2 GT ISZERO PUSH2 0x195F JUMPI PUSH2 0x195E PUSH2 0x13B9 JUMP JUMPDEST JUMPDEST PUSH2 0x196B DUP8 DUP3 DUP9 ADD PUSH2 0x18A2 JUMP JUMPDEST SWAP3 POP SWAP3 POP POP SWAP3 SWAP6 SWAP2 SWAP5 POP SWAP3 POP JUMP JUMPDEST PUSH2 0x1982 DUP2 PUSH2 0x13DE JUMP JUMPDEST DUP3 MSTORE POP POP JUMP JUMPDEST PUSH1 0x0 PUSH1 0x20 DUP3 ADD SWAP1 POP PUSH2 0x199D PUSH1 0x0 DUP4 ADD DUP5 PUSH2 0x1979 JUMP JUMPDEST SWAP3 SWAP2 POP POP JUMP JUMPDEST PUSH1 0x0 PUSH1 0x40 DUP3 ADD SWAP1 POP PUSH2 0x19B8 PUSH1 0x0 DUP4 ADD DUP6 PUSH2 0x1453 JUMP JUMPDEST PUSH2 0x19C5 PUSH1 0x20 DUP4 ADD DUP5 PUSH2 0x1453 JUMP JUMPDEST SWAP4 SWAP3 POP POP POP JUMP JUMPDEST PUSH32 0x4E487B7100000000000000000000000000000000000000000000000000000000 PUSH1 0x0 MSTORE PUSH1 0x32 PUSH1 0x4 MSTORE PUSH1 0x24 PUSH1 0x0 REVERT JUMPDEST PUSH1 0x0 DUP3 DUP3 MSTORE PUSH1 0x20 DUP3 ADD SWAP1 POP SWAP3 SWAP2 POP POP JUMP JUMPDEST PUSH32 0x496E73756666696369656E7420636F6E74726163742062616C616E6365000000 PUSH1 0x0 DUP3 ADD MSTORE POP JUMP JUMPDEST PUSH1 0x0 PUSH2 0x1A42 PUSH1 0x1D DUP4 PUSH2 0x19FB JUMP JUMPDEST SWAP2 POP PUSH2 0x1A4D DUP3 PUSH2 0x1A0C JUMP JUMPDEST PUSH1 0x20 DUP3 ADD SWAP1 POP SWAP2 SWAP1 POP JUMP JUMPDEST PUSH1 0x0 PUSH1 0x20 DUP3 ADD SWAP1 POP DUP2 DUP2 SUB PUSH1 0x0 DUP4 ADD MSTORE PUSH2 0x1A71 DUP2 PUSH2 0x1A35 JUMP JUMPDEST SWAP1 POP SWAP2 SWAP1 POP JUMP JUMPDEST PUSH32 0x4E487B7100000000000000000000000000000000000000000000000000000000 PUSH1 0x0 MSTORE PUSH1 0x11 PUSH1 0x4 MSTORE PUSH1 0x24 PUSH1 0x0 REVERT JUMPDEST PUSH1 0x0 PUSH2 0x1AB2 DUP3 PUSH2 0x1449 JUMP JUMPDEST SWAP2 POP PUSH2 0x1ABD DUP4 PUSH2 0x1449 JUMP JUMPDEST SWAP3 POP DUP3 DUP3 SUB SWAP1 POP DUP2 DUP2 GT ISZERO PUSH2 0x1AD5 JUMPI PUSH2 0x1AD4 PUSH2 0x1A78 JUMP JUMPDEST JUMPDEST SWAP3 SWAP2 POP POP JUMP JUMPDEST PUSH1 0x0 DUP2 SWAP1 POP SWAP3 SWAP2 POP POP JUMP JUMPDEST POP JUMP JUMPDEST PUSH1 0x0 PUSH2 0x1AF6 PUSH1 0x0 DUP4 PUSH2 0x1ADB JUMP JUMPDEST SWAP2 POP PUSH2 0x1B01 DUP3 PUSH2 0x1AE6 JUMP JUMPDEST PUSH1 0x0 DUP3 ADD SWAP1 POP SWAP2 SWAP1 POP JUMP JUMPDEST PUSH1 0x0 PUSH2 0x1B17 DUP3 PUSH2 0x1AE9 JUMP JUMPDEST SWAP2 POP DUP2 SWAP1 POP SWAP2 SWAP1 POP JUMP JUMPDEST PUSH32 0x576974686472617720776173206E6F74207375636365737366756C0000000000 PUSH1 0x0 DUP3 ADD MSTORE POP JUMP JUMPDEST PUSH1 0x0 PUSH2 0x1B57 PUSH1 0x1B DUP4 PUSH2 0x19FB JUMP JUMPDEST SWAP2 POP PUSH2 0x1B62 DUP3 PUSH2 0x1B21 JUMP JUMPDEST PUSH1 0x20 DUP3 ADD SWAP1 POP SWAP2 SWAP1 POP JUMP JUMPDEST PUSH1 0x0 PUSH1 0x20 DUP3 ADD SWAP1 POP DUP2 DUP2 SUB PUSH1 0x0 DUP4 ADD MSTORE PUSH2 0x1B86 DUP2 PUSH2 0x1B4A JUMP JUMPDEST SWAP1 POP SWAP2 SWAP1 POP JUMP JUMPDEST PUSH32 0x546865206C656E677468206F6620746865206172726179206973206E6F742074 PUSH1 0x0 DUP3 ADD MSTORE PUSH32 0x68652073616D6520617320746865206E756D626572206F66207061636B616765 PUSH1 0x20 DUP3 ADD MSTORE PUSH32 0x7300000000000000000000000000000000000000000000000000000000000000 PUSH1 0x40 DUP3 ADD MSTORE POP JUMP JUMPDEST PUSH1 0x0 PUSH2 0x1C0F PUSH1 0x41 DUP4 PUSH2 0x19FB JUMP JUMPDEST SWAP2 POP PUSH2 0x1C1A DUP3 PUSH2 0x1B8D JUMP JUMPDEST PUSH1 0x60 DUP3 ADD SWAP1 POP SWAP2 SWAP1 POP JUMP JUMPDEST PUSH1 0x0 PUSH1 0x20 DUP3 ADD SWAP1 POP DUP2 DUP2 SUB PUSH1 0x0 DUP4 ADD MSTORE PUSH2 0x1C3E DUP2 PUSH2 0x1C02 JUMP JUMPDEST SWAP1 POP SWAP2 SWAP1 POP JUMP JUMPDEST PUSH1 0x0 PUSH2 0x1C50 DUP3 PUSH2 0x1449 JUMP JUMPDEST SWAP2 POP PUSH2 0x1C5B DUP4 PUSH2 0x1449 JUMP JUMPDEST SWAP3 POP DUP3 DUP3 MUL PUSH2 0x1C69 DUP2 PUSH2 0x1449 JUMP JUMPDEST SWAP2 POP DUP3 DUP3 DIV DUP5 EQ DUP4 ISZERO OR PUSH2 0x1C80 JUMPI PUSH2 0x1C7F PUSH2 0x1A78 JUMP JUMPDEST JUMPDEST POP SWAP3 SWAP2 POP POP JUMP JUMPDEST PUSH1 0x0 PUSH2 0x1C92 DUP3 PUSH2 0x1449 JUMP JUMPDEST SWAP2 POP PUSH2 0x1C9D DUP4 PUSH2 0x1449 JUMP JUMPDEST SWAP3 POP DUP3 DUP3 ADD SWAP1 POP DUP1 DUP3 GT ISZERO PUSH2 0x1CB5 JUMPI PUSH2 0x1CB4 PUSH2 0x1A78 JUMP JUMPDEST JUMPDEST SWAP3 SWAP2 POP POP JUMP JUMPDEST PUSH1 0x0 PUSH2 0x1CC6 DUP3 PUSH2 0x147D JUMP JUMPDEST SWAP2 POP PUSH1 0xFF DUP3 SUB PUSH2 0x1CD9 JUMPI PUSH2 0x1CD8 PUSH2 0x1A78 JUMP JUMPDEST JUMPDEST PUSH1 0x1 DUP3 ADD SWAP1 POP SWAP2 SWAP1 POP JUMP JUMPDEST PUSH32 0x56616C75652073656E74206973206E6F74206578616374000000000000000000 PUSH1 0x0 DUP3 ADD MSTORE POP JUMP JUMPDEST PUSH1 0x0 PUSH2 0x1D1A PUSH1 0x17 DUP4 PUSH2 0x19FB JUMP JUMPDEST SWAP2 POP PUSH2 0x1D25 DUP3 PUSH2 0x1CE4 JUMP JUMPDEST PUSH1 0x20 DUP3 ADD SWAP1 POP SWAP2 SWAP1 POP JUMP JUMPDEST PUSH1 0x0 PUSH1 0x20 DUP3 ADD SWAP1 POP DUP2 DUP2 SUB PUSH1 0x0 DUP4 ADD MSTORE PUSH2 0x1D49 DUP2 PUSH2 0x1D0D JUMP JUMPDEST SWAP1 POP SWAP2 SWAP1 POP JUMP JUMPDEST PUSH1 0x0 DUP2 MLOAD SWAP1 POP SWAP2 SWAP1 POP JUMP JUMPDEST PUSH1 0x0 DUP3 DUP3 MSTORE PUSH1 0x20 DUP3 ADD SWAP1 POP SWAP3 SWAP2 POP POP JUMP JUMPDEST PUSH1 0x0 DUP2 SWAP1 POP PUSH1 0x20 DUP3 ADD SWAP1 POP SWAP2 SWAP1 POP JUMP JUMPDEST PUSH1 0x0 PUSH2 0x1D88 DUP4 DUP4 PUSH2 0x14E3 JUMP JUMPDEST PUSH1 0x20 DUP4 ADD SWAP1 POP SWAP3 SWAP2 POP POP JUMP JUMPDEST PUSH1 0x0 PUSH1 0x20 DUP3 ADD SWAP1 POP SWAP2 SWAP1 POP JUMP JUMPDEST PUSH1 0x0 PUSH2 0x1DAC DUP3 PUSH2 0x1D50 JUMP JUMPDEST PUSH2 0x1DB6 DUP2 DUP6 PUSH2 0x1D5B JUMP JUMPDEST SWAP4 POP PUSH2 0x1DC1 DUP4 PUSH2 0x1D6C JUMP JUMPDEST DUP1 PUSH1 0x0 JUMPDEST DUP4 DUP2 LT ISZERO PUSH2 0x1DF2 JUMPI DUP2 MLOAD PUSH2 0x1DD9 DUP9 DUP3 PUSH2 0x1D7C JUMP JUMPDEST SWAP8 POP PUSH2 0x1DE4 DUP4 PUSH2 0x1D94 JUMP JUMPDEST SWAP3 POP POP PUSH1 0x1 DUP2 ADD SWAP1 POP PUSH2 0x1DC5 JUMP JUMPDEST POP DUP6 SWAP4 POP POP POP POP SWAP3 SWAP2 POP POP JUMP JUMPDEST PUSH1 0x0 PUSH1 0x80 DUP3 ADD SWAP1 POP PUSH2 0x1E14 PUSH1 0x0 DUP4 ADD DUP8 PUSH2 0x1979 JUMP JUMPDEST DUP2 DUP2 SUB PUSH1 0x20 DUP4 ADD MSTORE PUSH2 0x1E26 DUP2 DUP7 PUSH2 0x1DA1 JUMP JUMPDEST SWAP1 POP PUSH2 0x1E35 PUSH1 0x40 DUP4 ADD DUP6 PUSH2 0x1453 JUMP JUMPDEST PUSH2 0x1E42 PUSH1 0x60 DUP4 ADD DUP5 PUSH2 0x1453 JUMP JUMPDEST SWAP6 SWAP5 POP POP POP POP POP JUMP JUMPDEST PUSH32 0x4D616E61207175616E7469747920616E64207072696365732061727261797320 PUSH1 0x0 DUP3 ADD MSTORE PUSH32 0x6D7573742068617665207468652073616D65206C656E67746800000000000000 PUSH1 0x20 DUP3 ADD MSTORE POP JUMP JUMPDEST PUSH1 0x0 PUSH2 0x1EA7 PUSH1 0x39 DUP4 PUSH2 0x19FB JUMP JUMPDEST SWAP2 POP PUSH2 0x1EB2 DUP3 PUSH2 0x1E4B JUMP JUMPDEST PUSH1 0x40 DUP3 ADD SWAP1 POP SWAP2 SWAP1 POP JUMP JUMPDEST PUSH1 0x0 PUSH1 0x20 DUP3 ADD SWAP1 POP DUP2 DUP2 SUB PUSH1 0x0 DUP4 ADD MSTORE PUSH2 0x1ED6 DUP2 PUSH2 0x1E9A JUMP JUMPDEST SWAP1 POP SWAP2 SWAP1 POP JUMP JUMPDEST PUSH32 0x4D616E61207175616E7469747920616E64207072696365732061727261797320 PUSH1 0x0 DUP3 ADD MSTORE PUSH32 0x6D7573742062652073616D65206C656E67746820617320706B67517479000000 PUSH1 0x20 DUP3 ADD MSTORE POP JUMP JUMPDEST PUSH1 0x0 PUSH2 0x1F39 PUSH1 0x3D DUP4 PUSH2 0x19FB JUMP JUMPDEST SWAP2 POP PUSH2 0x1F44 DUP3 PUSH2 0x1EDD JUMP JUMPDEST PUSH1 0x40 DUP3 ADD SWAP1 POP SWAP2 SWAP1 POP JUMP JUMPDEST PUSH1 0x0 PUSH1 0x20 DUP3 ADD SWAP1 POP DUP2 DUP2 SUB PUSH1 0x0 DUP4 ADD MSTORE PUSH2 0x1F68 DUP2 PUSH2 0x1F2C JUMP JUMPDEST SWAP1 POP SWAP2 SWAP1 POP JUMP JUMPDEST PUSH32 0x576974686472617720616C6C20776173206E6F74207375636365737366756C00 PUSH1 0x0 DUP3 ADD MSTORE POP JUMP JUMPDEST PUSH1 0x0 PUSH2 0x1FA5 PUSH1 0x1F DUP4 PUSH2 0x19FB JUMP JUMPDEST SWAP2 POP PUSH2 0x1FB0 DUP3 PUSH2 0x1F6F JUMP JUMPDEST PUSH1 0x20 DUP3 ADD SWAP1 POP SWAP2 SWAP1 POP JUMP JUMPDEST PUSH1 0x0 PUSH1 0x20 DUP3 ADD SWAP1 POP DUP2 DUP2 SUB PUSH1 0x0 DUP4 ADD MSTORE PUSH2 0x1FD4 DUP2 PUSH2 0x1F98 JUMP JUMPDEST SWAP1 POP SWAP2 SWAP1 POP JUMP JUMPDEST PUSH32 0x4F776E61626C653A206E6577206F776E657220697320746865207A65726F2061 PUSH1 0x0 DUP3 ADD MSTORE PUSH32 0x6464726573730000000000000000000000000000000000000000000000000000 PUSH1 0x20 DUP3 ADD MSTORE POP JUMP JUMPDEST PUSH1 0x0 PUSH2 0x2037 PUSH1 0x26 DUP4 PUSH2 0x19FB JUMP JUMPDEST SWAP2 POP PUSH2 0x2042 DUP3 PUSH2 0x1FDB JUMP JUMPDEST PUSH1 0x40 DUP3 ADD SWAP1 POP SWAP2 SWAP1 POP JUMP JUMPDEST PUSH1 0x0 PUSH1 0x20 DUP3 ADD SWAP1 POP DUP2 DUP2 SUB PUSH1 0x0 DUP4 ADD MSTORE PUSH2 0x2066 DUP2 PUSH2 0x202A JUMP JUMPDEST SWAP1 POP SWAP2 SWAP1 POP JUMP JUMPDEST PUSH32 0x4F776E61626C653A2063616C6C6572206973206E6F7420746865206F776E6572 PUSH1 0x0 DUP3 ADD MSTORE POP JUMP JUMPDEST PUSH1 0x0 PUSH2 0x20A3 PUSH1 0x20 DUP4 PUSH2 0x19FB JUMP JUMPDEST SWAP2 POP PUSH2 0x20AE DUP3 PUSH2 0x206D JUMP JUMPDEST PUSH1 0x20 DUP3 ADD SWAP1 POP SWAP2 SWAP1 POP JUMP JUMPDEST PUSH1 0x0 PUSH1 0x20 DUP3 ADD SWAP1 POP DUP2 DUP2 SUB PUSH1 0x0 DUP4 ADD MSTORE PUSH2 0x20D2 DUP2 PUSH2 0x2096 JUMP JUMPDEST SWAP1 POP SWAP2 SWAP1 POP JUMP INVALID LOG2 PUSH5 0x6970667358 0x22 SLT KECCAK256 0x23 SUB 0xA6 SWAP6 JUMPI 0xE7 0x5E DUP2 DUP10 DELEGATECALL 0xE1 CHAINID DUP2 SWAP7 GAS 0xEE 0xFC CALLVALUE PUSH21 0x77CE4F2F940E57A41ACAEAF55D64736F6C63430008 SLT STOP CALLER "},"methodIdentifiers":{"contractBalance()":"8b7afe2e","getManaBalance(address)":"58f1ed01","getPackageFromId(uint8)":"1f999818","getPackages()":"5c05a89f","getPkgQty()":"79460351","manaBalances(address)":"0e31b49f","owner()":"8da5cb5b","packages(uint256)":"c216212a","pkgQty()":"6f7e05ea","purchasePackages(uint256[])":"49e51fad","renounceOwnership()":"715018a6","setPackages(uint256[],uint256[])":"800a9cdd","setVaultAddress(address)":"85535cc5","transferOwnership(address)":"f2fde38b","vaultAddress()":"430bf08a","withdraw(uint256)":"2e1a7d4d","withdrawAll()":"853828b6"}}}}}