{
  "_format": "hh-sol-artifact-1",
  "contractName": "ManaVendingMachine",
  "sourceName": "contracts/ManaVendingMachine.sol",
  "abi": [
    {
      "inputs": [],
      "stateMutability": "nonpayable",
      "type": "constructor"
    },
    {
      "anonymous": false,
      "inputs": [
        {
          "indexed": true,
          "internalType": "address",
          "name": "previousOwner",
          "type": "address"
        },
        {
          "indexed": true,
          "internalType": "address",
          "name": "newOwner",
          "type": "address"
        }
      ],
      "name": "OwnershipTransferred",
      "type": "event"
    },
    {
      "anonymous": false,
      "inputs": [
        {
          "indexed": false,
          "internalType": "address",
          "name": "buyer",
          "type": "address"
        },
        {
          "indexed": false,
          "internalType": "uint256[]",
          "name": "quantities",
          "type": "uint256[]"
        },
        {
          "indexed": false,
          "internalType": "uint256",
          "name": "totalEth",
          "type": "uint256"
        },
        {
          "indexed": false,
          "internalType": "uint256",
          "name": "totalMana",
          "type": "uint256"
        }
      ],
      "name": "PurchasePackages",
      "type": "event"
    },
    {
      "inputs": [],
      "name": "contractBalance",
      "outputs": [
        {
          "internalType": "uint256",
          "name": "",
          "type": "uint256"
        }
      ],
      "stateMutability": "view",
      "type": "function"
    },
    {
      "inputs": [
        {
          "internalType": "address",
          "name": "_address",
          "type": "address"
        }
      ],
      "name": "getManaBalance",
      "outputs": [
        {
          "internalType": "uint256",
          "name": "",
          "type": "uint256"
        }
      ],
      "stateMutability": "view",
      "type": "function"
    },
    {
      "inputs": [
        {
          "internalType": "uint8",
          "name": "pkgId",
          "type": "uint8"
        }
      ],
      "name": "getPackageFromId",
      "outputs": [
        {
          "components": [
            {
              "internalType": "uint256",
              "name": "manaQty",
              "type": "uint256"
            },
            {
              "internalType": "uint256",
              "name": "price",
              "type": "uint256"
            }
          ],
          "internalType": "struct ManaVendingMachine.Package",
          "name": "",
          "type": "tuple"
        }
      ],
      "stateMutability": "view",
      "type": "function"
    },
    {
      "inputs": [],
      "name": "getPackages",
      "outputs": [
        {
          "components": [
            {
              "internalType": "uint256",
              "name": "manaQty",
              "type": "uint256"
            },
            {
              "internalType": "uint256",
              "name": "price",
              "type": "uint256"
            }
          ],
          "internalType": "struct ManaVendingMachine.Package[]",
          "name": "",
          "type": "tuple[]"
        }
      ],
      "stateMutability": "view",
      "type": "function"
    },
    {
      "inputs": [],
      "name": "getPkgQty",
      "outputs": [
        {
          "internalType": "uint8",
          "name": "",
          "type": "uint8"
        }
      ],
      "stateMutability": "view",
      "type": "function"
    },
    {
      "inputs": [
        {
          "internalType": "address",
          "name": "",
          "type": "address"
        }
      ],
      "name": "manaBalances",
      "outputs": [
        {
          "internalType": "uint256",
          "name": "",
          "type": "uint256"
        }
      ],
      "stateMutability": "view",
      "type": "function"
    },
    {
      "inputs": [],
      "name": "owner",
      "outputs": [
        {
          "internalType": "address",
          "name": "",
          "type": "address"
        }
      ],
      "stateMutability": "view",
      "type": "function"
    },
    {
      "inputs": [
        {
          "internalType": "uint256",
          "name": "",
          "type": "uint256"
        }
      ],
      "name": "packages",
      "outputs": [
        {
          "internalType": "uint256",
          "name": "manaQty",
          "type": "uint256"
        },
        {
          "internalType": "uint256",
          "name": "price",
          "type": "uint256"
        }
      ],
      "stateMutability": "view",
      "type": "function"
    },
    {
      "inputs": [],
      "name": "pkgQty",
      "outputs": [
        {
          "internalType": "uint8",
          "name": "",
          "type": "uint8"
        }
      ],
      "stateMutability": "view",
      "type": "function"
    },
    {
      "inputs": [
        {
          "internalType": "uint256[]",
          "name": "_qty",
          "type": "uint256[]"
        }
      ],
      "name": "purchasePackages",
      "outputs": [],
      "stateMutability": "payable",
      "type": "function"
    },
    {
      "inputs": [],
      "name": "renounceOwnership",
      "outputs": [],
      "stateMutability": "nonpayable",
      "type": "function"
    },
    {
      "inputs": [
        {
          "internalType": "uint256[]",
          "name": "_manaQty",
          "type": "uint256[]"
        },
        {
          "internalType": "uint256[]",
          "name": "_prices",
          "type": "uint256[]"
        }
      ],
      "name": "setPackages",
      "outputs": [],
      "stateMutability": "nonpayable",
      "type": "function"
    },
    {
      "inputs": [
        {
          "internalType": "address",
          "name": "_vaultAdress",
          "type": "address"
        }
      ],
      "name": "setVaultAddress",
      "outputs": [],
      "stateMutability": "nonpayable",
      "type": "function"
    },
    {
      "inputs": [
        {
          "internalType": "address",
          "name": "newOwner",
          "type": "address"
        }
      ],
      "name": "transferOwnership",
      "outputs": [],
      "stateMutability": "nonpayable",
      "type": "function"
    },
    {
      "inputs": [],
      "name": "vaultAddress",
      "outputs": [
        {
          "internalType": "address payable",
          "name": "",
          "type": "address"
        }
      ],
      "stateMutability": "view",
      "type": "function"
    },
    {
      "inputs": [
        {
          "internalType": "uint256",
          "name": "_amount",
          "type": "uint256"
        }
      ],
      "name": "withdraw",
      "outputs": [],
      "stateMutability": "nonpayable",
      "type": "function"
    },
    {
      "inputs": [],
      "name": "withdrawAll",
      "outputs": [],
      "stateMutability": "nonpayable",
      "type": "function"
    }
  ],
  "bytecode": "0x60806040527fffffffffffffffffffffffffffffffffffffffffffffffffffffffffffffffff6004556003600560006101000a81548160ff021916908360ff1602179055503480156200005157600080fd5b506200007262000066620001f260201b60201c565b620001fa60201b60201c565b6200008e677bfb6b99ffa4800660c01b620002be60201b60201c565b620000aa675da08289f56f115d60c01b620002be60201b60201c565b33600160006101000a81548173ffffffffffffffffffffffffffffffffffffffff021916908373ffffffffffffffffffffffffffffffffffffffff160217905550620001076759bed1a61ab1d92060c01b620002be60201b60201c565b6200012367d23f69eb4e7c2c9260c01b620002be60201b60201c565b60005b600560009054906101000a900460ff1660ff168160ff161015620001eb5762000160670d3da5494f6c7e7b60c01b620002be60201b60201c565b6200017c675492a7fd5e4fdcaa60c01b620002be60201b60201c565b60066040518060400160405280600081526020016004548152509080600181540180825580915050600190039060005260206000209060020201600090919091909150600082015181600001556020820151816001015550508080620001e290620002fd565b91505062000126565b506200032b565b600033905090565b60008060009054906101000a900473ffffffffffffffffffffffffffffffffffffffff169050816000806101000a81548173ffffffffffffffffffffffffffffffffffffffff021916908373ffffffffffffffffffffffffffffffffffffffff1602179055508173ffffffffffffffffffffffffffffffffffffffff168173ffffffffffffffffffffffffffffffffffffffff167f8be0079c531659141344cd1fd0a4f28419497f9722a3daafe3b4186f6b6457e060405160405180910390a35050565b50565b7f4e487b7100000000000000000000000000000000000000000000000000000000600052601160045260246000fd5b600060ff82169050919050565b60006200030a82620002f0565b915060ff820362000320576200031f620002c1565b5b600182019050919050565b61210f806200033b6000396000f3fe6080604052600436106100fe5760003560e01c8063715018a61161009557806385535cc51161006457806385535cc5146103025780638b7afe2e1461032b5780638da5cb5b14610356578063c216212a14610381578063f2fde38b146103bf576100fe565b8063715018a6146102805780637946035114610297578063800a9cdd146102c2578063853828b6146102eb576100fe565b806349e51fad116100d157806349e51fad146101d157806358f1ed01146101ed5780635c05a89f1461022a5780636f7e05ea14610255576100fe565b80630e31b49f146101035780631f999818146101405780632e1a7d4d1461017d578063430bf08a146101a6575b600080fd5b34801561010f57600080fd5b5061012a6004803603810190610125919061141c565b6103e8565b6040516101379190611462565b60405180910390f35b34801561014c57600080fd5b50610167600480360381019061016291906114b6565b610400565b6040516101749190611521565b60405180910390f35b34801561018957600080fd5b506101a4600480360381019061019f9190611568565b61048f565b005b3480156101b257600080fd5b506101bb6106df565b6040516101c891906115b6565b60405180910390f35b6101eb60048036038101906101e6919061172a565b610705565b005b3480156101f957600080fd5b50610214600480360381019061020f919061141c565b610ac7565b6040516102219190611462565b60405180910390f35b34801561023657600080fd5b5061023f610b4c565b60405161024c9190611851565b60405180910390f35b34801561026157600080fd5b5061026a610bfb565b6040516102779190611882565b60405180910390f35b34801561028c57600080fd5b50610295610c0e565b005b3480156102a357600080fd5b506102ac610c22565b6040516102b99190611882565b60405180910390f35b3480156102ce57600080fd5b506102e960048036038101906102e491906118f8565b610c75565b005b3480156102f757600080fd5b50610300610ee8565b005b34801561030e57600080fd5b506103296004803603810190610324919061141c565b6110c1565b005b34801561033757600080fd5b5061034061115d565b60405161034d9190611462565b60405180910390f35b34801561036257600080fd5b5061036b611163565b6040516103789190611988565b60405180910390f35b34801561038d57600080fd5b506103a860048036038101906103a39190611568565b61118c565b6040516103b69291906119a3565b60405180910390f35b3480156103cb57600080fd5b506103e660048036038101906103e1919061141c565b6111c0565b005b60036020528060005260406000206000915090505481565b610408611390565b61041c676a51ddc742cc84a160c01b611243565b61043067f5554c9c1038058a60c01b611243565b6104446778ff5481cadaf5c860c01b611243565b60068260ff168154811061045b5761045a6119cc565b5b9060005260206000209060020201604051806040016040529081600082015481526020016001820154815250509050919050565b6104a367b208e66ea44d01c960c01b611243565b6104ab611246565b6104bf67e7f95c9669979f4560c01b611243565b6104d367cd707742cc7c785460c01b611243565b6104e76768f70861a733073760c01b611243565b6104fb67882674d56964f6e160c01b611243565b61050f671552a3358efeb28a60c01b611243565b600254811115610554576040517f08c379a000000000000000000000000000000000000000000000000000000000815260040161054b90611a58565b60405180910390fd5b610568673cbe34ca8fdf832d60c01b611243565b61057c67683520000d7885c860c01b611243565b806002600082825461058e9190611aa7565b925050819055506105a96723f8410f6d3a574760c01b611243565b6105bd67c53e754ca15346ed60c01b611243565b6000600160009054906101000a900473ffffffffffffffffffffffffffffffffffffffff1673ffffffffffffffffffffffffffffffffffffffff168260405161060590611b0c565b60006040518083038185875af1925050503d8060008114610642576040519150601f19603f3d011682016040523d82523d6000602084013e610647565b606091505b5050905061065f675311d05cb7e2aeb360c01b611243565b610673672365e4c686d10ca560c01b611243565b610687674be94397f8c615a560c01b611243565b806106c7576040517f08c379a00000000000000000000000000000000000000000000000000000000081526004016106be90611b6d565b60405180910390fd5b6106db671c78cf6abaf6875b60c01b611243565b5050565b600160009054906101000a900473ffffffffffffffffffffffffffffffffffffffff1681565b6107196775fc5917f01fd47d60c01b611243565b61072d676b7412f0187b8c6a60c01b611243565b610741671548057c0668adb960c01b611243565b610755675998abb5c8a9830d60c01b611243565b60068054905081511461079d576040517f08c379a000000000000000000000000000000000000000000000000000000000815260040161079490611c25565b60405180910390fd5b6107b1672a81aac93d281a7760c01b611243565b6107c5677898f7df70be014e60c01b611243565b6107d967304eda2a5827beef60c01b611243565b60006107ef678370dabb1f85b07860c01b611243565b6108036784b70ac18298605660c01b611243565b600061081967f608c38c05dc604060c01b611243565b61082d6757866cc209dc0c0760c01b611243565b60005b83518160ff16101561093357610850675aae15fa8061e83260c01b611243565b838160ff1681518110610866576108656119cc565b5b602002602001015160068260ff1681548110610885576108846119cc565b5b9060005260206000209060020201600101546108a19190611c45565b836108ac9190611c87565b92506108c2677fad7d5fd9a1295860c01b611243565b838160ff16815181106108d8576108d76119cc565b5b602002602001015160068260ff16815481106108f7576108f66119cc565b5b9060005260206000209060020201600001546109139190611c45565b8261091e9190611c87565b9150808061092b90611cbb565b915050610830565b5061094867e788e338f8a2ea6e60c01b611243565b61095c670d8b9cf91069475460c01b611243565b61097067b94af9b1f30c6c9e60c01b611243565b8134146109b2576040517f08c379a00000000000000000000000000000000000000000000000000000000081526004016109a990611d30565b60405180910390fd5b6109c66753d01dbfaebab48c60c01b611243565b6109da670afcd9b591327a8d60c01b611243565b80600360003373ffffffffffffffffffffffffffffffffffffffff1673ffffffffffffffffffffffffffffffffffffffff1681526020019081526020016000206000828254610a299190611c87565b92505081905550610a44677814e8169cf9610860c01b611243565b8160026000828254610a569190611c87565b92505081905550610a7167951c0b491adb004c60c01b611243565b610a8567286134d8d7a9c60e60c01b611243565b7f64131d7433d64d592fad1870936554cdb1b7276a745cb4795b36678fc5237f8833848484604051610aba9493929190611dff565b60405180910390a1505050565b6000610add6722c7eadd2445823f60c01b611243565b610af16772709c7b6e9357cd60c01b611243565b610b0567b9906dbf4c05b49b60c01b611243565b600360008373ffffffffffffffffffffffffffffffffffffffff1673ffffffffffffffffffffffffffffffffffffffff168152602001908152602001600020549050919050565b6060610b6267fa86d4366eda8ab760c01b611243565b610b7667c5c91996c79bd1b260c01b611243565b610b8a675a77752aec0814c760c01b611243565b6006805480602002602001604051908101604052809291908181526020016000905b82821015610bf257838290600052602060002090600202016040518060400160405290816000820154815260200160018201548152505081526020019060010190610bac565b50505050905090565b600560009054906101000a900460ff1681565b610c16611246565b610c2060006112c4565b565b6000610c38675d74eaf831ba9cec60c01b611243565b610c4c67ecf275499b67c62a60c01b611243565b610c60674dc1cde47af9da1460c01b611243565b600560009054906101000a900460ff16905090565b610c89675a5fd3e34549812b60c01b611243565b610c91611246565b610ca567c63e22141e134fd360c01b611243565b610cb967969cf58e607e89c760c01b611243565b610ccd67fe59ffd8bd68f83960c01b611243565b610ce1671cd32aa676e400b860c01b611243565b610cf567c77efdfa347e150c60c01b611243565b818190508484905014610d3d576040517f08c379a0000000000000000000000000000000000000000000000000000000008152600401610d3490611ebd565b60405180910390fd5b610d51679174c737664e82c560c01b611243565b610d656776f3ee132309f4c360c01b611243565b610d7967b45b991d197da36360c01b611243565b610d8d674393f34e7c45143860c01b611243565b600560009054906101000a900460ff1660ff168484905014610de4576040517f08c379a0000000000000000000000000000000000000000000000000000000008152600401610ddb90611f4f565b60405180910390fd5b610df86771758dad1a4af87d60c01b611243565b610e0c6772ada53baf1cf5b860c01b611243565b610e2067a8c763d59db83b8c60c01b611243565b60005b848490508160ff161015610ee157610e4567c1f3ab49205d3c8060c01b611243565b604051806040016040528086868460ff16818110610e6657610e656119cc565b5b90506020020135815260200184848460ff16818110610e8857610e876119cc565b5b9050602002013581525060068260ff1681548110610ea957610ea86119cc565b5b906000526020600020906002020160008201518160000155602082015181600101559050508080610ed990611cbb565b915050610e23565b5050505050565b610efc6791bf7bea1dc7ca1a60c01b611243565b610f04611246565b610f18675a39ebc1d7f4fd5660c01b611243565b610f2c67a4f4223cf61a49e960c01b611243565b610f4067d7251bbd9acb429460c01b611243565b610f5467bdae393db0a5952160c01b611243565b60006002549050610f6f675387ac8a3daba6f360c01b611243565b6000600281905550610f8b67260d6dcfb0d4faa860c01b611243565b610f9f67c8da8b6018484fdd60c01b611243565b6000600160009054906101000a900473ffffffffffffffffffffffffffffffffffffffff1673ffffffffffffffffffffffffffffffffffffffff1682604051610fe790611b0c565b60006040518083038185875af1925050503d8060008114611024576040519150601f19603f3d011682016040523d82523d6000602084013e611029565b606091505b5050905061104167550104f1b9ef709f60c01b611243565b6110556779bcae42a28c686760c01b611243565b61106967fde44546dda266d960c01b611243565b806110a9576040517f08c379a00000000000000000000000000000000000000000000000000000000081526004016110a090611fbb565b60405180910390fd5b6110bd67b4b7595b9c31657960c01b611243565b5050565b6110d567a28c54573f53a73e60c01b611243565b6110dd611246565b6110f1673c2250c28ae5067960c01b611243565b61110567d055e9ee38f8240560c01b611243565b6111196719b360fdd690c0ff60c01b611243565b80600160006101000a81548173ffffffffffffffffffffffffffffffffffffffff021916908373ffffffffffffffffffffffffffffffffffffffff16021790555050565b60025481565b60008060009054906101000a900473ffffffffffffffffffffffffffffffffffffffff16905090565b6006818154811061119c57600080fd5b90600052602060002090600202016000915090508060000154908060010154905082565b6111c8611246565b600073ffffffffffffffffffffffffffffffffffffffff168173ffffffffffffffffffffffffffffffffffffffff1603611237576040517f08c379a000000000000000000000000000000000000000000000000000000000815260040161122e9061204d565b60405180910390fd5b611240816112c4565b50565b50565b61124e611388565b73ffffffffffffffffffffffffffffffffffffffff1661126c611163565b73ffffffffffffffffffffffffffffffffffffffff16146112c2576040517f08c379a00000000000000000000000000000000000000000000000000000000081526004016112b9906120b9565b60405180910390fd5b565b60008060009054906101000a900473ffffffffffffffffffffffffffffffffffffffff169050816000806101000a81548173ffffffffffffffffffffffffffffffffffffffff021916908373ffffffffffffffffffffffffffffffffffffffff1602179055508173ffffffffffffffffffffffffffffffffffffffff168173ffffffffffffffffffffffffffffffffffffffff167f8be0079c531659141344cd1fd0a4f28419497f9722a3daafe3b4186f6b6457e060405160405180910390a35050565b600033905090565b604051806040016040528060008152602001600081525090565b6000604051905090565b600080fd5b600080fd5b600073ffffffffffffffffffffffffffffffffffffffff82169050919050565b60006113e9826113be565b9050919050565b6113f9816113de565b811461140457600080fd5b50565b600081359050611416816113f0565b92915050565b600060208284031215611432576114316113b4565b5b600061144084828501611407565b91505092915050565b6000819050919050565b61145c81611449565b82525050565b60006020820190506114776000830184611453565b92915050565b600060ff82169050919050565b6114938161147d565b811461149e57600080fd5b50565b6000813590506114b08161148a565b92915050565b6000602082840312156114cc576114cb6113b4565b5b60006114da848285016114a1565b91505092915050565b6114ec81611449565b82525050565b60408201600082015161150860008501826114e3565b50602082015161151b60208501826114e3565b50505050565b600060408201905061153660008301846114f2565b92915050565b61154581611449565b811461155057600080fd5b50565b6000813590506115628161153c565b92915050565b60006020828403121561157e5761157d6113b4565b5b600061158c84828501611553565b91505092915050565b60006115a0826113be565b9050919050565b6115b081611595565b82525050565b60006020820190506115cb60008301846115a7565b92915050565b600080fd5b6000601f19601f8301169050919050565b7f4e487b7100000000000000000000000000000000000000000000000000000000600052604160045260246000fd5b61161f826115d6565b810181811067ffffffffffffffff8211171561163e5761163d6115e7565b5b80604052505050565b60006116516113aa565b905061165d8282611616565b919050565b600067ffffffffffffffff82111561167d5761167c6115e7565b5b602082029050602081019050919050565b600080fd5b60006116a66116a184611662565b611647565b905080838252602082019050602084028301858111156116c9576116c861168e565b5b835b818110156116f257806116de8882611553565b8452602084019350506020810190506116cb565b5050509392505050565b600082601f830112611711576117106115d1565b5b8135611721848260208601611693565b91505092915050565b6000602082840312156117405761173f6113b4565b5b600082013567ffffffffffffffff81111561175e5761175d6113b9565b5b61176a848285016116fc565b91505092915050565b600081519050919050565b600082825260208201905092915050565b6000819050602082019050919050565b6040820160008201516117b560008501826114e3565b5060208201516117c860208501826114e3565b50505050565b60006117da838361179f565b60408301905092915050565b6000602082019050919050565b60006117fe82611773565b611808818561177e565b93506118138361178f565b8060005b8381101561184457815161182b88826117ce565b9750611836836117e6565b925050600181019050611817565b5085935050505092915050565b6000602082019050818103600083015261186b81846117f3565b905092915050565b61187c8161147d565b82525050565b60006020820190506118976000830184611873565b92915050565b600080fd5b60008083601f8401126118b8576118b76115d1565b5b8235905067ffffffffffffffff8111156118d5576118d461189d565b5b6020830191508360208202830111156118f1576118f061168e565b5b9250929050565b60008060008060408587031215611912576119116113b4565b5b600085013567ffffffffffffffff8111156119305761192f6113b9565b5b61193c878288016118a2565b9450945050602085013567ffffffffffffffff81111561195f5761195e6113b9565b5b61196b878288016118a2565b925092505092959194509250565b611982816113de565b82525050565b600060208201905061199d6000830184611979565b92915050565b60006040820190506119b86000830185611453565b6119c56020830184611453565b9392505050565b7f4e487b7100000000000000000000000000000000000000000000000000000000600052603260045260246000fd5b600082825260208201905092915050565b7f496e73756666696369656e7420636f6e74726163742062616c616e6365000000600082015250565b6000611a42601d836119fb565b9150611a4d82611a0c565b602082019050919050565b60006020820190508181036000830152611a7181611a35565b9050919050565b7f4e487b7100000000000000000000000000000000000000000000000000000000600052601160045260246000fd5b6000611ab282611449565b9150611abd83611449565b9250828203905081811115611ad557611ad4611a78565b5b92915050565b600081905092915050565b50565b6000611af6600083611adb565b9150611b0182611ae6565b600082019050919050565b6000611b1782611ae9565b9150819050919050565b7f576974686472617720776173206e6f74207375636365737366756c0000000000600082015250565b6000611b57601b836119fb565b9150611b6282611b21565b602082019050919050565b60006020820190508181036000830152611b8681611b4a565b9050919050565b7f546865206c656e677468206f6620746865206172726179206973206e6f74207460008201527f68652073616d6520617320746865206e756d626572206f66207061636b61676560208201527f7300000000000000000000000000000000000000000000000000000000000000604082015250565b6000611c0f6041836119fb565b9150611c1a82611b8d565b606082019050919050565b60006020820190508181036000830152611c3e81611c02565b9050919050565b6000611c5082611449565b9150611c5b83611449565b9250828202611c6981611449565b91508282048414831517611c8057611c7f611a78565b5b5092915050565b6000611c9282611449565b9150611c9d83611449565b9250828201905080821115611cb557611cb4611a78565b5b92915050565b6000611cc68261147d565b915060ff8203611cd957611cd8611a78565b5b600182019050919050565b7f56616c75652073656e74206973206e6f74206578616374000000000000000000600082015250565b6000611d1a6017836119fb565b9150611d2582611ce4565b602082019050919050565b60006020820190508181036000830152611d4981611d0d565b9050919050565b600081519050919050565b600082825260208201905092915050565b6000819050602082019050919050565b6000611d8883836114e3565b60208301905092915050565b6000602082019050919050565b6000611dac82611d50565b611db68185611d5b565b9350611dc183611d6c565b8060005b83811015611df2578151611dd98882611d7c565b9750611de483611d94565b925050600181019050611dc5565b5085935050505092915050565b6000608082019050611e146000830187611979565b8181036020830152611e268186611da1565b9050611e356040830185611453565b611e426060830184611453565b95945050505050565b7f4d616e61207175616e7469747920616e6420707269636573206172726179732060008201527f6d7573742068617665207468652073616d65206c656e67746800000000000000602082015250565b6000611ea76039836119fb565b9150611eb282611e4b565b604082019050919050565b60006020820190508181036000830152611ed681611e9a565b9050919050565b7f4d616e61207175616e7469747920616e6420707269636573206172726179732060008201527f6d7573742062652073616d65206c656e67746820617320706b67517479000000602082015250565b6000611f39603d836119fb565b9150611f4482611edd565b604082019050919050565b60006020820190508181036000830152611f6881611f2c565b9050919050565b7f576974686472617720616c6c20776173206e6f74207375636365737366756c00600082015250565b6000611fa5601f836119fb565b9150611fb082611f6f565b602082019050919050565b60006020820190508181036000830152611fd481611f98565b9050919050565b7f4f776e61626c653a206e6577206f776e657220697320746865207a65726f206160008201527f6464726573730000000000000000000000000000000000000000000000000000602082015250565b60006120376026836119fb565b915061204282611fdb565b604082019050919050565b600060208201905081810360008301526120668161202a565b9050919050565b7f4f776e61626c653a2063616c6c6572206973206e6f7420746865206f776e6572600082015250565b60006120a36020836119fb565b91506120ae8261206d565b602082019050919050565b600060208201905081810360008301526120d281612096565b905091905056fea26469706673582212202303a69557e75e8189f4e14681965aeefc347477ce4f2f940e57a41acaeaf55d64736f6c63430008120033",
  "linkReferences": {},
  "deployedLinkReferences": {}
}