{
  "_format": "hh-sol-artifact-1",
  "contractName": "ManaVendingMachine",
  "sourceName": "contracts/ManaVendingMachine.sol",
  "abi": [
    {
      "inputs": [],
      "stateMutability": "nonpayable",
      "type": "constructor"
    },
    {
      "anonymous": false,
      "inputs": [
        {
          "indexed": true,
          "internalType": "address",
          "name": "previousOwner",
          "type": "address"
        },
        {
          "indexed": true,
          "internalType": "address",
          "name": "newOwner",
          "type": "address"
        }
      ],
      "name": "OwnershipTransferred",
      "type": "event"
    },
    {
      "anonymous": false,
      "inputs": [
        {
          "indexed": false,
          "internalType": "address",
          "name": "buyer",
          "type": "address"
        },
        {
          "indexed": false,
          "internalType": "uint256[]",
          "name": "quantities",
          "type": "uint256[]"
        },
        {
          "indexed": false,
          "internalType": "uint256",
          "name": "totalEth",
          "type": "uint256"
        },
        {
          "indexed": false,
          "internalType": "uint256",
          "name": "totalMana",
          "type": "uint256"
        }
      ],
      "name": "PurchasePackages",
      "type": "event"
    },
    {
      "inputs": [],
      "name": "contractBalance",
      "outputs": [
        {
          "internalType": "uint256",
          "name": "",
          "type": "uint256"
        }
      ],
      "stateMutability": "view",
      "type": "function"
    },
    {
      "inputs": [
        {
          "internalType": "address",
          "name": "_address",
          "type": "address"
        }
      ],
      "name": "getManaBalance",
      "outputs": [
        {
          "internalType": "uint256",
          "name": "",
          "type": "uint256"
        }
      ],
      "stateMutability": "view",
      "type": "function"
    },
    {
      "inputs": [
        {
          "internalType": "uint8",
          "name": "pkgId",
          "type": "uint8"
        }
      ],
      "name": "getPackageFromId",
      "outputs": [
        {
          "components": [
            {
              "internalType": "uint256",
              "name": "manaQty",
              "type": "uint256"
            },
            {
              "internalType": "uint256",
              "name": "price",
              "type": "uint256"
            }
          ],
          "internalType": "struct ManaVendingMachine.Package",
          "name": "",
          "type": "tuple"
        }
      ],
      "stateMutability": "view",
      "type": "function"
    },
    {
      "inputs": [],
      "name": "getPackages",
      "outputs": [
        {
          "components": [
            {
              "internalType": "uint256",
              "name": "manaQty",
              "type": "uint256"
            },
            {
              "internalType": "uint256",
              "name": "price",
              "type": "uint256"
            }
          ],
          "internalType": "struct ManaVendingMachine.Package[]",
          "name": "",
          "type": "tuple[]"
        }
      ],
      "stateMutability": "view",
      "type": "function"
    },
    {
      "inputs": [],
      "name": "getPkgQty",
      "outputs": [
        {
          "internalType": "uint8",
          "name": "",
          "type": "uint8"
        }
      ],
      "stateMutability": "view",
      "type": "function"
    },
    {
      "inputs": [
        {
          "internalType": "address",
          "name": "",
          "type": "address"
        }
      ],
      "name": "manaBalances",
      "outputs": [
        {
          "internalType": "uint256",
          "name": "",
          "type": "uint256"
        }
      ],
      "stateMutability": "view",
      "type": "function"
    },
    {
      "inputs": [],
      "name": "owner",
      "outputs": [
        {
          "internalType": "address",
          "name": "",
          "type": "address"
        }
      ],
      "stateMutability": "view",
      "type": "function"
    },
    {
      "inputs": [
        {
          "internalType": "uint256",
          "name": "",
          "type": "uint256"
        }
      ],
      "name": "packages",
      "outputs": [
        {
          "internalType": "uint256",
          "name": "manaQty",
          "type": "uint256"
        },
        {
          "internalType": "uint256",
          "name": "price",
          "type": "uint256"
        }
      ],
      "stateMutability": "view",
      "type": "function"
    },
    {
      "inputs": [],
      "name": "pkgQty",
      "outputs": [
        {
          "internalType": "uint8",
          "name": "",
          "type": "uint8"
        }
      ],
      "stateMutability": "view",
      "type": "function"
    },
    {
      "inputs": [
        {
          "internalType": "uint256[]",
          "name": "_qty",
          "type": "uint256[]"
        }
      ],
      "name": "purchasePackages",
      "outputs": [],
      "stateMutability": "payable",
      "type": "function"
    },
    {
      "inputs": [],
      "name": "renounceOwnership",
      "outputs": [],
      "stateMutability": "nonpayable",
      "type": "function"
    },
    {
      "inputs": [
        {
          "internalType": "uint256[]",
          "name": "_manaQty",
          "type": "uint256[]"
        },
        {
          "internalType": "uint256[]",
          "name": "_prices",
          "type": "uint256[]"
        }
      ],
      "name": "setPackages",
      "outputs": [],
      "stateMutability": "nonpayable",
      "type": "function"
    },
    {
      "inputs": [
        {
          "internalType": "address",
          "name": "_vaultAdress",
          "type": "address"
        }
      ],
      "name": "setVaultAddress",
      "outputs": [],
      "stateMutability": "nonpayable",
      "type": "function"
    },
    {
      "inputs": [
        {
          "internalType": "address",
          "name": "newOwner",
          "type": "address"
        }
      ],
      "name": "transferOwnership",
      "outputs": [],
      "stateMutability": "nonpayable",
      "type": "function"
    },
    {
      "inputs": [],
      "name": "vaultAddress",
      "outputs": [
        {
          "internalType": "address payable",
          "name": "",
          "type": "address"
        }
      ],
      "stateMutability": "view",
      "type": "function"
    },
    {
      "inputs": [
        {
          "internalType": "uint256",
          "name": "_amount",
          "type": "uint256"
        }
      ],
      "name": "withdraw",
      "outputs": [],
      "stateMutability": "nonpayable",
      "type": "function"
    },
    {
      "inputs": [],
      "name": "withdrawAll",
      "outputs": [],
      "stateMutability": "nonpayable",
      "type": "function"
    }
  ],
  "bytecode": "0x60806040527fffffffffffffffffffffffffffffffffffffffffffffffffffffffffffffffff6004556003600560006101000a81548160ff021916908360ff1602179055503480156200005157600080fd5b5062000072620000666200014a60201b60201c565b6200015260201b60201c565b33600160006101000a81548173ffffffffffffffffffffffffffffffffffffffff021916908373ffffffffffffffffffffffffffffffffffffffff16021790555060005b600560009054906101000a900460ff1660ff168160ff1610156200014357600660405180604001604052806000815260200160045481525090806001815401808255809150506001900390600052602060002090600202016000909190919091506000820151816000015560208201518160010155505080806200013a9062000252565b915050620000b6565b5062000280565b600033905090565b60008060009054906101000a900473ffffffffffffffffffffffffffffffffffffffff169050816000806101000a81548173ffffffffffffffffffffffffffffffffffffffff021916908373ffffffffffffffffffffffffffffffffffffffff1602179055508173ffffffffffffffffffffffffffffffffffffffff168173ffffffffffffffffffffffffffffffffffffffff167f8be0079c531659141344cd1fd0a4f28419497f9722a3daafe3b4186f6b6457e060405160405180910390a35050565b7f4e487b7100000000000000000000000000000000000000000000000000000000600052601160045260246000fd5b600060ff82169050919050565b60006200025f8262000245565b915060ff820362000275576200027462000216565b5b600182019050919050565b611b3280620002906000396000f3fe6080604052600436106100fe5760003560e01c8063715018a61161009557806385535cc51161006457806385535cc5146103025780638b7afe2e1461032b5780638da5cb5b14610356578063c216212a14610381578063f2fde38b146103bf576100fe565b8063715018a6146102805780637946035114610297578063800a9cdd146102c2578063853828b6146102eb576100fe565b806349e51fad116100d157806349e51fad146101d157806358f1ed01146101ed5780635c05a89f1461022a5780636f7e05ea14610255576100fe565b80630e31b49f146101035780631f999818146101405780632e1a7d4d1461017d578063430bf08a146101a6575b600080fd5b34801561010f57600080fd5b5061012a60048036038101906101259190610e19565b6103e8565b6040516101379190610e5f565b60405180910390f35b34801561014c57600080fd5b5061016760048036038101906101629190610eb3565b610400565b6040516101749190610f1e565b60405180910390f35b34801561018957600080fd5b506101a4600480360381019061019f9190610f65565b61049d565b005b3480156101b257600080fd5b506101bb610590565b6040516101c89190610fb3565b60405180910390f35b6101eb60048036038101906101e69190611127565b6105b6565b005b3480156101f957600080fd5b50610214600480360381019061020f9190610e19565b6107d3565b6040516102219190610e5f565b60405180910390f35b34801561023657600080fd5b5061023f61081c565b60405161024c919061124e565b60405180910390f35b34801561026157600080fd5b5061026a61088f565b604051610277919061127f565b60405180910390f35b34801561028c57600080fd5b506102956108a2565b005b3480156102a357600080fd5b506102ac6108b6565b6040516102b9919061127f565b60405180910390f35b3480156102ce57600080fd5b506102e960048036038101906102e491906112f5565b6108cd565b005b3480156102f757600080fd5b50610300610a28565b005b34801561030e57600080fd5b5061032960048036038101906103249190610e19565b610b11565b005b34801561033757600080fd5b50610340610b5d565b60405161034d9190610e5f565b60405180910390f35b34801561036257600080fd5b5061036b610b63565b6040516103789190611385565b60405180910390f35b34801561038d57600080fd5b506103a860048036038101906103a39190610f65565b610b8c565b6040516103b69291906113a0565b60405180910390f35b3480156103cb57600080fd5b506103e660048036038101906103e19190610e19565b610bc0565b005b60036020528060005260406000206000915090505481565b610408610d8d565b6006805490508260ff1610610452576040517f08c379a00000000000000000000000000000000000000000000000000000000081526004016104499061144c565b60405180910390fd5b60068260ff16815481106104695761046861146c565b5b9060005260206000209060020201604051806040016040529081600082015481526020016001820154815250509050919050565b6104a5610c43565b80600260008282546104b791906114ca565b925050819055506000600160009054906101000a900473ffffffffffffffffffffffffffffffffffffffff1673ffffffffffffffffffffffffffffffffffffffff16826040516105069061152f565b60006040518083038185875af1925050503d8060008114610543576040519150601f19603f3d011682016040523d82523d6000602084013e610548565b606091505b505090508061058c576040517f08c379a000000000000000000000000000000000000000000000000000000000815260040161058390611590565b60405180910390fd5b5050565b600160009054906101000a900473ffffffffffffffffffffffffffffffffffffffff1681565b6006805490508151146105fe576040517f08c379a00000000000000000000000000000000000000000000000000000000081526004016105f590611648565b60405180910390fd5b60008060005b83518160ff1610156106df57838160ff16815181106106265761062561146c565b5b602002602001015160068260ff16815481106106455761064461146c565b5b9060005260206000209060020201600101546106619190611668565b8361066c91906116aa565b9250838160ff16815181106106845761068361146c565b5b602002602001015160068260ff16815481106106a3576106a261146c565b5b9060005260206000209060020201600001546106bf9190611668565b826106ca91906116aa565b915080806106d7906116de565b915050610604565b50813414610722576040517f08c379a000000000000000000000000000000000000000000000000000000000815260040161071990611753565b60405180910390fd5b80600360003373ffffffffffffffffffffffffffffffffffffffff1673ffffffffffffffffffffffffffffffffffffffff168152602001908152602001600020600082825461077191906116aa565b92505081905550816002600082825461078a91906116aa565b925050819055507f64131d7433d64d592fad1870936554cdb1b7276a745cb4795b36678fc5237f88338484846040516107c69493929190611822565b60405180910390a1505050565b6000600360008373ffffffffffffffffffffffffffffffffffffffff1673ffffffffffffffffffffffffffffffffffffffff168152602001908152602001600020549050919050565b60606006805480602002602001604051908101604052809291908181526020016000905b8282101561088657838290600052602060002090600202016040518060400160405290816000820154815260200160018201548152505081526020019060010190610840565b50505050905090565b600560009054906101000a900460ff1681565b6108aa610c43565b6108b46000610cc1565b565b6000600560009054906101000a900460ff16905090565b6108d5610c43565b81819050848490501461091d576040517f08c379a0000000000000000000000000000000000000000000000000000000008152600401610914906118e0565b60405180910390fd5b600560009054906101000a900460ff1660ff168484905014610974576040517f08c379a000000000000000000000000000000000000000000000000000000000815260040161096b90611972565b60405180910390fd5b60005b848490508160ff161015610a2157604051806040016040528086868460ff168181106109a6576109a561146c565b5b90506020020135815260200184848460ff168181106109c8576109c761146c565b5b9050602002013581525060068260ff16815481106109e9576109e861146c565b5b906000526020600020906002020160008201518160000155602082015181600101559050508080610a19906116de565b915050610977565b5050505050565b610a30610c43565b6000600254905060006002819055506000600160009054906101000a900473ffffffffffffffffffffffffffffffffffffffff1673ffffffffffffffffffffffffffffffffffffffff1682604051610a879061152f565b60006040518083038185875af1925050503d8060008114610ac4576040519150601f19603f3d011682016040523d82523d6000602084013e610ac9565b606091505b5050905080610b0d576040517f08c379a0000000000000000000000000000000000000000000000000000000008152600401610b04906119de565b60405180910390fd5b5050565b610b19610c43565b80600160006101000a81548173ffffffffffffffffffffffffffffffffffffffff021916908373ffffffffffffffffffffffffffffffffffffffff16021790555050565b60025481565b60008060009054906101000a900473ffffffffffffffffffffffffffffffffffffffff16905090565b60068181548110610b9c57600080fd5b90600052602060002090600202016000915090508060000154908060010154905082565b610bc8610c43565b600073ffffffffffffffffffffffffffffffffffffffff168173ffffffffffffffffffffffffffffffffffffffff1603610c37576040517f08c379a0000000000000000000000000000000000000000000000000000000008152600401610c2e90611a70565b60405180910390fd5b610c4081610cc1565b50565b610c4b610d85565b73ffffffffffffffffffffffffffffffffffffffff16610c69610b63565b73ffffffffffffffffffffffffffffffffffffffff1614610cbf576040517f08c379a0000000000000000000000000000000000000000000000000000000008152600401610cb690611adc565b60405180910390fd5b565b60008060009054906101000a900473ffffffffffffffffffffffffffffffffffffffff169050816000806101000a81548173ffffffffffffffffffffffffffffffffffffffff021916908373ffffffffffffffffffffffffffffffffffffffff1602179055508173ffffffffffffffffffffffffffffffffffffffff168173ffffffffffffffffffffffffffffffffffffffff167f8be0079c531659141344cd1fd0a4f28419497f9722a3daafe3b4186f6b6457e060405160405180910390a35050565b600033905090565b604051806040016040528060008152602001600081525090565b6000604051905090565b600080fd5b600080fd5b600073ffffffffffffffffffffffffffffffffffffffff82169050919050565b6000610de682610dbb565b9050919050565b610df681610ddb565b8114610e0157600080fd5b50565b600081359050610e1381610ded565b92915050565b600060208284031215610e2f57610e2e610db1565b5b6000610e3d84828501610e04565b91505092915050565b6000819050919050565b610e5981610e46565b82525050565b6000602082019050610e746000830184610e50565b92915050565b600060ff82169050919050565b610e9081610e7a565b8114610e9b57600080fd5b50565b600081359050610ead81610e87565b92915050565b600060208284031215610ec957610ec8610db1565b5b6000610ed784828501610e9e565b91505092915050565b610ee981610e46565b82525050565b604082016000820151610f056000850182610ee0565b506020820151610f186020850182610ee0565b50505050565b6000604082019050610f336000830184610eef565b92915050565b610f4281610e46565b8114610f4d57600080fd5b50565b600081359050610f5f81610f39565b92915050565b600060208284031215610f7b57610f7a610db1565b5b6000610f8984828501610f50565b91505092915050565b6000610f9d82610dbb565b9050919050565b610fad81610f92565b82525050565b6000602082019050610fc86000830184610fa4565b92915050565b600080fd5b6000601f19601f8301169050919050565b7f4e487b7100000000000000000000000000000000000000000000000000000000600052604160045260246000fd5b61101c82610fd3565b810181811067ffffffffffffffff8211171561103b5761103a610fe4565b5b80604052505050565b600061104e610da7565b905061105a8282611013565b919050565b600067ffffffffffffffff82111561107a57611079610fe4565b5b602082029050602081019050919050565b600080fd5b60006110a361109e8461105f565b611044565b905080838252602082019050602084028301858111156110c6576110c561108b565b5b835b818110156110ef57806110db8882610f50565b8452602084019350506020810190506110c8565b5050509392505050565b600082601f83011261110e5761110d610fce565b5b813561111e848260208601611090565b91505092915050565b60006020828403121561113d5761113c610db1565b5b600082013567ffffffffffffffff81111561115b5761115a610db6565b5b611167848285016110f9565b91505092915050565b600081519050919050565b600082825260208201905092915050565b6000819050602082019050919050565b6040820160008201516111b26000850182610ee0565b5060208201516111c56020850182610ee0565b50505050565b60006111d7838361119c565b60408301905092915050565b6000602082019050919050565b60006111fb82611170565b611205818561117b565b93506112108361118c565b8060005b8381101561124157815161122888826111cb565b9750611233836111e3565b925050600181019050611214565b5085935050505092915050565b6000602082019050818103600083015261126881846111f0565b905092915050565b61127981610e7a565b82525050565b60006020820190506112946000830184611270565b92915050565b600080fd5b60008083601f8401126112b5576112b4610fce565b5b8235905067ffffffffffffffff8111156112d2576112d161129a565b5b6020830191508360208202830111156112ee576112ed61108b565b5b9250929050565b6000806000806040858703121561130f5761130e610db1565b5b600085013567ffffffffffffffff81111561132d5761132c610db6565b5b6113398782880161129f565b9450945050602085013567ffffffffffffffff81111561135c5761135b610db6565b5b6113688782880161129f565b925092505092959194509250565b61137f81610ddb565b82525050565b600060208201905061139a6000830184611376565b92915050565b60006040820190506113b56000830185610e50565b6113c26020830184610e50565b9392505050565b600082825260208201905092915050565b7f54686520706b674964206d75737420626520696e207468652073697a65206f6660008201527f20746865207061636b6167657320617272617900000000000000000000000000602082015250565b60006114366033836113c9565b9150611441826113da565b604082019050919050565b6000602082019050818103600083015261146581611429565b9050919050565b7f4e487b7100000000000000000000000000000000000000000000000000000000600052603260045260246000fd5b7f4e487b7100000000000000000000000000000000000000000000000000000000600052601160045260246000fd5b60006114d582610e46565b91506114e083610e46565b92508282039050818111156114f8576114f761149b565b5b92915050565b600081905092915050565b50565b60006115196000836114fe565b915061152482611509565b600082019050919050565b600061153a8261150c565b9150819050919050565b7f576974686472617720776173206e6f74207375636365737366756c0000000000600082015250565b600061157a601b836113c9565b915061158582611544565b602082019050919050565b600060208201905081810360008301526115a98161156d565b9050919050565b7f546865206c656e677468206f6620746865206172726179206973206e6f74207460008201527f68652073616d6520617320746865206e756d626572206f66207061636b61676560208201527f7300000000000000000000000000000000000000000000000000000000000000604082015250565b60006116326041836113c9565b915061163d826115b0565b606082019050919050565b6000602082019050818103600083015261166181611625565b9050919050565b600061167382610e46565b915061167e83610e46565b925082820261168c81610e46565b915082820484148315176116a3576116a261149b565b5b5092915050565b60006116b582610e46565b91506116c083610e46565b92508282019050808211156116d8576116d761149b565b5b92915050565b60006116e982610e7a565b915060ff82036116fc576116fb61149b565b5b600182019050919050565b7f56616c75652073656e74206973206e6f74206578616374000000000000000000600082015250565b600061173d6017836113c9565b915061174882611707565b602082019050919050565b6000602082019050818103600083015261176c81611730565b9050919050565b600081519050919050565b600082825260208201905092915050565b6000819050602082019050919050565b60006117ab8383610ee0565b60208301905092915050565b6000602082019050919050565b60006117cf82611773565b6117d9818561177e565b93506117e48361178f565b8060005b838110156118155781516117fc888261179f565b9750611807836117b7565b9250506001810190506117e8565b5085935050505092915050565b60006080820190506118376000830187611376565b818103602083015261184981866117c4565b90506118586040830185610e50565b6118656060830184610e50565b95945050505050565b7f4d616e61207175616e7469747920616e6420707269636573206172726179732060008201527f6d7573742068617665207468652073616d65206c656e67746800000000000000602082015250565b60006118ca6039836113c9565b91506118d58261186e565b604082019050919050565b600060208201905081810360008301526118f9816118bd565b9050919050565b7f4d616e61207175616e7469747920616e6420707269636573206172726179732060008201527f6d7573742062652073616d65206c656e67746820617320706b67517479000000602082015250565b600061195c603d836113c9565b915061196782611900565b604082019050919050565b6000602082019050818103600083015261198b8161194f565b9050919050565b7f576974686472617720616c6c20776173206e6f74207375636365737366756c00600082015250565b60006119c8601f836113c9565b91506119d382611992565b602082019050919050565b600060208201905081810360008301526119f7816119bb565b9050919050565b7f4f776e61626c653a206e6577206f776e657220697320746865207a65726f206160008201527f6464726573730000000000000000000000000000000000000000000000000000602082015250565b6000611a5a6026836113c9565b9150611a65826119fe565b604082019050919050565b60006020820190508181036000830152611a8981611a4d565b9050919050565b7f4f776e61626c653a2063616c6c6572206973206e6f7420746865206f776e6572600082015250565b6000611ac66020836113c9565b9150611ad182611a90565b602082019050919050565b60006020820190508181036000830152611af581611ab9565b905091905056fea2646970667358221220a304987ee5f068ee29d5a9acb06b2e19830eeb40867ff34fbfc060928524d66e64736f6c63430008120033",
  "linkReferences": {},
  "deployedLinkReferences": {}
}