{
  "_format": "hh-sol-artifact-1",
  "contractName": "ManaVendingMachine",
  "sourceName": "contracts/ManaVendingMachine.sol",
  "abi": [
    {
      "inputs": [],
      "stateMutability": "nonpayable",
      "type": "constructor"
    },
    {
      "anonymous": false,
      "inputs": [
        {
          "indexed": true,
          "internalType": "address",
          "name": "previousOwner",
          "type": "address"
        },
        {
          "indexed": true,
          "internalType": "address",
          "name": "newOwner",
          "type": "address"
        }
      ],
      "name": "OwnershipTransferred",
      "type": "event"
    },
    {
      "inputs": [
        {
          "internalType": "address",
          "name": "_address",
          "type": "address"
        }
      ],
      "name": "getManaBalance",
      "outputs": [
        {
          "internalType": "uint256",
          "name": "",
          "type": "uint256"
        }
      ],
      "stateMutability": "view",
      "type": "function"
    },
    {
      "inputs": [
        {
          "internalType": "uint8",
          "name": "pkgId",
          "type": "uint8"
        }
      ],
      "name": "getPackageFromId",
      "outputs": [
        {
          "components": [
            {
              "internalType": "uint32",
              "name": "manaQty",
              "type": "uint32"
            },
            {
              "internalType": "uint32",
              "name": "price",
              "type": "uint32"
            }
          ],
          "internalType": "struct ManaVendingMachine.Package",
          "name": "",
          "type": "tuple"
        }
      ],
      "stateMutability": "view",
      "type": "function"
    },
    {
      "inputs": [],
      "name": "getPackages",
      "outputs": [
        {
          "components": [
            {
              "internalType": "uint32",
              "name": "manaQty",
              "type": "uint32"
            },
            {
              "internalType": "uint32",
              "name": "price",
              "type": "uint32"
            }
          ],
          "internalType": "struct ManaVendingMachine.Package[]",
          "name": "",
          "type": "tuple[]"
        }
      ],
      "stateMutability": "view",
      "type": "function"
    },
    {
      "inputs": [],
      "name": "getPkgQty",
      "outputs": [
        {
          "internalType": "uint8",
          "name": "",
          "type": "uint8"
        }
      ],
      "stateMutability": "view",
      "type": "function"
    },
    {
      "inputs": [
        {
          "internalType": "address",
          "name": "",
          "type": "address"
        }
      ],
      "name": "manaBalances",
      "outputs": [
        {
          "internalType": "uint256",
          "name": "",
          "type": "uint256"
        }
      ],
      "stateMutability": "view",
      "type": "function"
    },
    {
      "inputs": [],
      "name": "owner",
      "outputs": [
        {
          "internalType": "address",
          "name": "",
          "type": "address"
        }
      ],
      "stateMutability": "view",
      "type": "function"
    },
    {
      "inputs": [
        {
          "internalType": "uint256",
          "name": "",
          "type": "uint256"
        }
      ],
      "name": "packages",
      "outputs": [
        {
          "internalType": "uint32",
          "name": "manaQty",
          "type": "uint32"
        },
        {
          "internalType": "uint32",
          "name": "price",
          "type": "uint32"
        }
      ],
      "stateMutability": "view",
      "type": "function"
    },
    {
      "inputs": [],
      "name": "pkgQty",
      "outputs": [
        {
          "internalType": "uint8",
          "name": "",
          "type": "uint8"
        }
      ],
      "stateMutability": "view",
      "type": "function"
    },
    {
      "inputs": [
        {
          "internalType": "uint8[]",
          "name": "_qty",
          "type": "uint8[]"
        }
      ],
      "name": "purchasePackages",
      "outputs": [],
      "stateMutability": "payable",
      "type": "function"
    },
    {
      "inputs": [],
      "name": "renounceOwnership",
      "outputs": [],
      "stateMutability": "nonpayable",
      "type": "function"
    },
    {
      "inputs": [
        {
          "internalType": "uint32[]",
          "name": "_manaQty",
          "type": "uint32[]"
        },
        {
          "internalType": "uint32[]",
          "name": "_prices",
          "type": "uint32[]"
        }
      ],
      "name": "setPackages",
      "outputs": [],
      "stateMutability": "nonpayable",
      "type": "function"
    },
    {
      "inputs": [
        {
          "internalType": "address",
          "name": "_vaultAdress",
          "type": "address"
        }
      ],
      "name": "setVaultAddress",
      "outputs": [],
      "stateMutability": "nonpayable",
      "type": "function"
    },
    {
      "inputs": [
        {
          "internalType": "address",
          "name": "newOwner",
          "type": "address"
        }
      ],
      "name": "transferOwnership",
      "outputs": [],
      "stateMutability": "nonpayable",
      "type": "function"
    },
    {
      "inputs": [],
      "name": "vaultAdress",
      "outputs": [
        {
          "internalType": "address payable",
          "name": "",
          "type": "address"
        }
      ],
      "stateMutability": "view",
      "type": "function"
    }
  ],
  "bytecode": "0x6080604052600a600360006101000a81548160ff021916908360ff1602179055503480156200002d57600080fd5b506200004e620000426200012660201b60201c565b6200012e60201b60201c565b60005b600360009054906101000a900460ff1660ff168160ff1610156200011f5760046040518060400160405280600063ffffffff168152602001600063ffffffff168152509080600181540180825580915050600190039060005260206000200160009091909190915060008201518160000160006101000a81548163ffffffff021916908363ffffffff16021790555060208201518160000160046101000a81548163ffffffff021916908363ffffffff1602179055505050808062000116906200022e565b91505062000051565b506200025c565b600033905090565b60008060009054906101000a900473ffffffffffffffffffffffffffffffffffffffff169050816000806101000a81548173ffffffffffffffffffffffffffffffffffffffff021916908373ffffffffffffffffffffffffffffffffffffffff1602179055508173ffffffffffffffffffffffffffffffffffffffff168173ffffffffffffffffffffffffffffffffffffffff167f8be0079c531659141344cd1fd0a4f28419497f9722a3daafe3b4186f6b6457e060405160405180910390a35050565b7f4e487b7100000000000000000000000000000000000000000000000000000000600052601160045260246000fd5b600060ff82169050919050565b60006200023b8262000221565b915060ff8203620002515762000250620001f2565b5b600182019050919050565b611804806200026c6000396000f3fe6080604052600436106100dd5760003560e01c8063794603511161007f578063be134c3d11610059578063be134c3d146102a1578063c216212a146102ca578063d7c5e95314610308578063f2fde38b14610333576100dd565b8063794603511461022257806385535cc51461024d5780638da5cb5b14610276576100dd565b806358f1ed01116100bb57806358f1ed01146101785780635c05a89f146101b55780636f7e05ea146101e0578063715018a61461020b576100dd565b80630b63b5d6146100e25780630e31b49f146100fe5780631f9998181461013b575b600080fd5b6100fc60048036038101906100f79190610e8b565b61035c565b005b34801561010a57600080fd5b5061012560048036038101906101209190610f32565b6105b7565b6040516101329190610f78565b60405180910390f35b34801561014757600080fd5b50610162600480360381019061015d9190610f93565b6105cf565b60405161016f919061100e565b60405180910390f35b34801561018457600080fd5b5061019f600480360381019061019a9190610f32565b610656565b6040516101ac9190610f78565b60405180910390f35b3480156101c157600080fd5b506101ca61069f565b6040516101d79190611107565b60405180910390f35b3480156101ec57600080fd5b506101f5610746565b6040516102029190611138565b60405180910390f35b34801561021757600080fd5b50610220610759565b005b34801561022e57600080fd5b5061023761076d565b6040516102449190611138565b60405180910390f35b34801561025957600080fd5b50610274600480360381019061026f9190610f32565b610784565b005b34801561028257600080fd5b5061028b6107d0565b6040516102989190611162565b60405180910390f35b3480156102ad57600080fd5b506102c860048036038101906102c391906111d8565b6107f9565b005b3480156102d657600080fd5b506102f160048036038101906102ec9190611285565b610a7c565b6040516102ff9291906112c1565b60405180910390f35b34801561031457600080fd5b5061031d610acc565b60405161032a919061130b565b60405180910390f35b34801561033f57600080fd5b5061035a60048036038101906103559190610f32565b610af2565b005b6004805490508151146103a4576040517f08c379a000000000000000000000000000000000000000000000000000000000815260040161039b906113cf565b60405180910390fd5b60008060005b83518160ff1610156104af57838160ff16815181106103cc576103cb6113ef565b5b602002602001015160ff1660048260ff16815481106103ee576103ed6113ef565b5b9060005260206000200160000160049054906101000a900463ffffffff16610416919061144d565b63ffffffff1683610427919061148a565b9250838160ff168151811061043f5761043e6113ef565b5b602002602001015160ff1660048260ff1681548110610461576104606113ef565b5b9060005260206000200160000160009054906101000a900463ffffffff16610489919061144d565b63ffffffff168261049a919061148a565b915080806104a7906114be565b9150506103aa565b50813410156104f3576040517f08c379a00000000000000000000000000000000000000000000000000000000081526004016104ea90611533565b60405180910390fd5b600160009054906101000a900473ffffffffffffffffffffffffffffffffffffffff1673ffffffffffffffffffffffffffffffffffffffff166108fc349081150290604051600060405180830381858888f1935050505015801561055b573d6000803e3d6000fd5b5080600260003373ffffffffffffffffffffffffffffffffffffffff1673ffffffffffffffffffffffffffffffffffffffff16815260200190815260200160002060008282546105ab919061148a565b92505081905550505050565b60026020528060005260406000206000915090505481565b6105d7610cbf565b60048260ff16815481106105ee576105ed6113ef565b5b906000526020600020016040518060400160405290816000820160009054906101000a900463ffffffff1663ffffffff1663ffffffff1681526020016000820160049054906101000a900463ffffffff1663ffffffff1663ffffffff16815250509050919050565b6000600260008373ffffffffffffffffffffffffffffffffffffffff1673ffffffffffffffffffffffffffffffffffffffff168152602001908152602001600020549050919050565b60606004805480602002602001604051908101604052809291908181526020016000905b8282101561073d578382906000526020600020016040518060400160405290816000820160009054906101000a900463ffffffff1663ffffffff1663ffffffff1681526020016000820160049054906101000a900463ffffffff1663ffffffff1663ffffffff1681525050815260200190600101906106c3565b50505050905090565b600360009054906101000a900460ff1681565b610761610b75565b61076b6000610bf3565b565b6000600360009054906101000a900460ff16905090565b61078c610b75565b80600160006101000a81548173ffffffffffffffffffffffffffffffffffffffff021916908373ffffffffffffffffffffffffffffffffffffffff16021790555050565b60008060009054906101000a900473ffffffffffffffffffffffffffffffffffffffff16905090565b610801610b75565b818190508484905014610849576040517f08c379a0000000000000000000000000000000000000000000000000000000008152600401610840906115c5565b60405180910390fd5b600360009054906101000a900460ff1660ff168484905011156108a1576040517f08c379a000000000000000000000000000000000000000000000000000000000815260040161089890611657565b60405180910390fd5b60005b600360009054906101000a900460ff1660ff168160ff161015610969576040518060400160405280600063ffffffff168152602001600063ffffffff1681525060048260ff16815481106108fb576108fa6113ef565b5b9060005260206000200160008201518160000160006101000a81548163ffffffff021916908363ffffffff16021790555060208201518160000160046101000a81548163ffffffff021916908363ffffffff1602179055509050508080610961906114be565b9150506108a4565b5060005b848490508160ff161015610a7557604051806040016040528086868460ff1681811061099c5761099b6113ef565b5b90506020020160208101906109b191906116a3565b63ffffffff16815260200184848460ff168181106109d2576109d16113ef565b5b90506020020160208101906109e791906116a3565b63ffffffff1681525060048260ff1681548110610a0757610a066113ef565b5b9060005260206000200160008201518160000160006101000a81548163ffffffff021916908363ffffffff16021790555060208201518160000160046101000a81548163ffffffff021916908363ffffffff1602179055509050508080610a6d906114be565b91505061096d565b5050505050565b60048181548110610a8c57600080fd5b906000526020600020016000915090508060000160009054906101000a900463ffffffff16908060000160049054906101000a900463ffffffff16905082565b600160009054906101000a900473ffffffffffffffffffffffffffffffffffffffff1681565b610afa610b75565b600073ffffffffffffffffffffffffffffffffffffffff168173ffffffffffffffffffffffffffffffffffffffff1603610b69576040517f08c379a0000000000000000000000000000000000000000000000000000000008152600401610b6090611742565b60405180910390fd5b610b7281610bf3565b50565b610b7d610cb7565b73ffffffffffffffffffffffffffffffffffffffff16610b9b6107d0565b73ffffffffffffffffffffffffffffffffffffffff1614610bf1576040517f08c379a0000000000000000000000000000000000000000000000000000000008152600401610be8906117ae565b60405180910390fd5b565b60008060009054906101000a900473ffffffffffffffffffffffffffffffffffffffff169050816000806101000a81548173ffffffffffffffffffffffffffffffffffffffff021916908373ffffffffffffffffffffffffffffffffffffffff1602179055508173ffffffffffffffffffffffffffffffffffffffff168173ffffffffffffffffffffffffffffffffffffffff167f8be0079c531659141344cd1fd0a4f28419497f9722a3daafe3b4186f6b6457e060405160405180910390a35050565b600033905090565b6040518060400160405280600063ffffffff168152602001600063ffffffff1681525090565b6000604051905090565b600080fd5b600080fd5b600080fd5b6000601f19601f8301169050919050565b7f4e487b7100000000000000000000000000000000000000000000000000000000600052604160045260246000fd5b610d4782610cfe565b810181811067ffffffffffffffff82111715610d6657610d65610d0f565b5b80604052505050565b6000610d79610ce5565b9050610d858282610d3e565b919050565b600067ffffffffffffffff821115610da557610da4610d0f565b5b602082029050602081019050919050565b600080fd5b600060ff82169050919050565b610dd181610dbb565b8114610ddc57600080fd5b50565b600081359050610dee81610dc8565b92915050565b6000610e07610e0284610d8a565b610d6f565b90508083825260208201905060208402830185811115610e2a57610e29610db6565b5b835b81811015610e535780610e3f8882610ddf565b845260208401935050602081019050610e2c565b5050509392505050565b600082601f830112610e7257610e71610cf9565b5b8135610e82848260208601610df4565b91505092915050565b600060208284031215610ea157610ea0610cef565b5b600082013567ffffffffffffffff811115610ebf57610ebe610cf4565b5b610ecb84828501610e5d565b91505092915050565b600073ffffffffffffffffffffffffffffffffffffffff82169050919050565b6000610eff82610ed4565b9050919050565b610f0f81610ef4565b8114610f1a57600080fd5b50565b600081359050610f2c81610f06565b92915050565b600060208284031215610f4857610f47610cef565b5b6000610f5684828501610f1d565b91505092915050565b6000819050919050565b610f7281610f5f565b82525050565b6000602082019050610f8d6000830184610f69565b92915050565b600060208284031215610fa957610fa8610cef565b5b6000610fb784828501610ddf565b91505092915050565b600063ffffffff82169050919050565b610fd981610fc0565b82525050565b604082016000820151610ff56000850182610fd0565b5060208201516110086020850182610fd0565b50505050565b60006040820190506110236000830184610fdf565b92915050565b600081519050919050565b600082825260208201905092915050565b6000819050602082019050919050565b60408201600082015161106b6000850182610fd0565b50602082015161107e6020850182610fd0565b50505050565b60006110908383611055565b60408301905092915050565b6000602082019050919050565b60006110b482611029565b6110be8185611034565b93506110c983611045565b8060005b838110156110fa5781516110e18882611084565b97506110ec8361109c565b9250506001810190506110cd565b5085935050505092915050565b6000602082019050818103600083015261112181846110a9565b905092915050565b61113281610dbb565b82525050565b600060208201905061114d6000830184611129565b92915050565b61115c81610ef4565b82525050565b60006020820190506111776000830184611153565b92915050565b600080fd5b60008083601f84011261119857611197610cf9565b5b8235905067ffffffffffffffff8111156111b5576111b461117d565b5b6020830191508360208202830111156111d1576111d0610db6565b5b9250929050565b600080600080604085870312156111f2576111f1610cef565b5b600085013567ffffffffffffffff8111156112105761120f610cf4565b5b61121c87828801611182565b9450945050602085013567ffffffffffffffff81111561123f5761123e610cf4565b5b61124b87828801611182565b925092505092959194509250565b61126281610f5f565b811461126d57600080fd5b50565b60008135905061127f81611259565b92915050565b60006020828403121561129b5761129a610cef565b5b60006112a984828501611270565b91505092915050565b6112bb81610fc0565b82525050565b60006040820190506112d660008301856112b2565b6112e360208301846112b2565b9392505050565b60006112f582610ed4565b9050919050565b611305816112ea565b82525050565b600060208201905061132060008301846112fc565b92915050565b600082825260208201905092915050565b7f546865206c656e677468206f6620746865206172726179206973206e6f74207460008201527f68652073616d6520617320746865206e756d626572206f66207061636b61676560208201527f7300000000000000000000000000000000000000000000000000000000000000604082015250565b60006113b9604183611326565b91506113c482611337565b606082019050919050565b600060208201905081810360008301526113e8816113ac565b9050919050565b7f4e487b7100000000000000000000000000000000000000000000000000000000600052603260045260246000fd5b7f4e487b7100000000000000000000000000000000000000000000000000000000600052601160045260246000fd5b600061145882610fc0565b915061146383610fc0565b925082820261147181610fc0565b91508082146114835761148261141e565b5b5092915050565b600061149582610f5f565b91506114a083610f5f565b92508282019050808211156114b8576114b761141e565b5b92915050565b60006114c982610dbb565b915060ff82036114dc576114db61141e565b5b600182019050919050565b7f56616c75652073656e74206973206e6f7420656e6f7567680000000000000000600082015250565b600061151d601883611326565b9150611528826114e7565b602082019050919050565b6000602082019050818103600083015261154c81611510565b9050919050565b7f4d616e61207175616e7469747920616e6420707269636573206172726179732060008201527f6d7573742068617665207468652073616d65206c656e67746800000000000000602082015250565b60006115af603983611326565b91506115ba82611553565b604082019050919050565b600060208201905081810360008301526115de816115a2565b9050919050565b7f4d616e61207175616e7469747920616e6420707269636573206172726179732060008201527f6d7573742062652073686f72746572207468616e20706b675174790000000000602082015250565b6000611641603b83611326565b915061164c826115e5565b604082019050919050565b6000602082019050818103600083015261167081611634565b9050919050565b61168081610fc0565b811461168b57600080fd5b50565b60008135905061169d81611677565b92915050565b6000602082840312156116b9576116b8610cef565b5b60006116c78482850161168e565b91505092915050565b7f4f776e61626c653a206e6577206f776e657220697320746865207a65726f206160008201527f6464726573730000000000000000000000000000000000000000000000000000602082015250565b600061172c602683611326565b9150611737826116d0565b604082019050919050565b6000602082019050818103600083015261175b8161171f565b9050919050565b7f4f776e61626c653a2063616c6c6572206973206e6f7420746865206f776e6572600082015250565b6000611798602083611326565b91506117a382611762565b602082019050919050565b600060208201905081810360008301526117c78161178b565b905091905056fea26469706673582212204b96247df6c108d24c8f1c5cef4787160cafb49e3b41243dbdf62884abcbac6e64736f6c63430008120033",
  "linkReferences": {},
  "deployedLinkReferences": {}
}